{
  "_format": "hh-sol-artifact-1",
  "contractName": "NFTMarketplace",
  "sourceName": "contracts/NFTMarketplace.sol",
  "abi": [
    {
      "inputs": [
        {
          "internalType": "address",
          "name": "initialOwner",
          "type": "address"
        }
      ],
      "stateMutability": "nonpayable",
      "type": "constructor"
    },
    {
      "inputs": [],
      "name": "AlreadyListed",
      "type": "error"
    },
    {
      "inputs": [],
      "name": "ArrayLengthMismatch",
      "type": "error"
    },
    {
      "inputs": [
        {
          "internalType": "address",
          "name": "sender",
          "type": "address"
        },
        {
          "internalType": "uint256",
          "name": "tokenId",
          "type": "uint256"
        },
        {
          "internalType": "address",
          "name": "owner",
          "type": "address"
        }
      ],
      "name": "ERC721IncorrectOwner",
      "type": "error"
    },
    {
      "inputs": [
        {
          "internalType": "address",
          "name": "operator",
          "type": "address"
        },
        {
          "internalType": "uint256",
          "name": "tokenId",
          "type": "uint256"
        }
      ],
      "name": "ERC721InsufficientApproval",
      "type": "error"
    },
    {
      "inputs": [
        {
          "internalType": "address",
          "name": "approver",
          "type": "address"
        }
      ],
      "name": "ERC721InvalidApprover",
      "type": "error"
    },
    {
      "inputs": [
        {
          "internalType": "address",
          "name": "operator",
          "type": "address"
        }
      ],
      "name": "ERC721InvalidOperator",
      "type": "error"
    },
    {
      "inputs": [
        {
          "internalType": "address",
          "name": "owner",
          "type": "address"
        }
      ],
      "name": "ERC721InvalidOwner",
      "type": "error"
    },
    {
      "inputs": [
        {
          "internalType": "address",
          "name": "receiver",
          "type": "address"
        }
      ],
      "name": "ERC721InvalidReceiver",
      "type": "error"
    },
    {
      "inputs": [
        {
          "internalType": "address",
          "name": "sender",
          "type": "address"
        }
      ],
      "name": "ERC721InvalidSender",
      "type": "error"
    },
    {
      "inputs": [
        {
          "internalType": "uint256",
          "name": "tokenId",
          "type": "uint256"
        }
      ],
      "name": "ERC721NonexistentToken",
      "type": "error"
    },
    {
      "inputs": [],
      "name": "EmptyTokenArray",
      "type": "error"
    },
    {
      "inputs": [],
      "name": "FeeTooHigh",
      "type": "error"
    },
    {
      "inputs": [],
      "name": "InsufficientBatchPayment",
      "type": "error"
    },
    {
      "inputs": [],
      "name": "InsufficientFunds",
      "type": "error"
    },
    {
      "inputs": [],
      "name": "InsufficientMintFee",
      "type": "error"
    },
    {
      "inputs": [],
      "name": "InvalidAddress",
      "type": "error"
    },
    {
      "inputs": [],
      "name": "InvalidPrice",
      "type": "error"
    },
    {
      "inputs": [],
      "name": "NoFeesToWithdraw",
      "type": "error"
    },
    {
      "inputs": [],
      "name": "NoLongerOwnedBySeller",
      "type": "error"
    },
    {
      "inputs": [],
      "name": "NoRoyaltiesToWithdraw",
      "type": "error"
    },
    {
      "inputs": [],
      "name": "NotListed",
      "type": "error"
    },
    {
      "inputs": [],
      "name": "NotTokenOwner",
      "type": "error"
    },
    {
      "inputs": [
        {
          "internalType": "address",
          "name": "owner",
          "type": "address"
        }
      ],
      "name": "OwnableInvalidOwner",
      "type": "error"
    },
    {
      "inputs": [
        {
          "internalType": "address",
          "name": "account",
          "type": "address"
        }
      ],
      "name": "OwnableUnauthorizedAccount",
      "type": "error"
    },
    {
      "inputs": [],
      "name": "ReentrancyGuardReentrantCall",
      "type": "error"
    },
    {
      "inputs": [],
      "name": "RoyaltyTooHigh",
      "type": "error"
    },
    {
      "anonymous": false,
      "inputs": [
        {
          "indexed": true,
          "internalType": "address",
          "name": "owner",
          "type": "address"
        },
        {
          "indexed": true,
          "internalType": "address",
          "name": "approved",
          "type": "address"
        },
        {
          "indexed": true,
          "internalType": "uint256",
          "name": "tokenId",
          "type": "uint256"
        }
      ],
      "name": "Approval",
      "type": "event"
    },
    {
      "anonymous": false,
      "inputs": [
        {
          "indexed": true,
          "internalType": "address",
          "name": "owner",
          "type": "address"
        },
        {
          "indexed": true,
          "internalType": "address",
          "name": "operator",
          "type": "address"
        },
        {
          "indexed": false,
          "internalType": "bool",
          "name": "approved",
          "type": "bool"
        }
      ],
      "name": "ApprovalForAll",
      "type": "event"
    },
    {
      "anonymous": false,
      "inputs": [
        {
          "indexed": false,
          "internalType": "uint256",
          "name": "_fromTokenId",
          "type": "uint256"
        },
        {
          "indexed": false,
          "internalType": "uint256",
          "name": "_toTokenId",
          "type": "uint256"
        }
      ],
      "name": "BatchMetadataUpdate",
      "type": "event"
    },
    {
      "anonymous": false,
      "inputs": [
        {
          "indexed": true,
          "internalType": "address",
          "name": "owner",
          "type": "address"
        },
        {
          "indexed": false,
          "internalType": "uint256",
          "name": "amount",
          "type": "uint256"
        }
      ],
      "name": "FeesWithdrawn",
      "type": "event"
    },
    {
      "anonymous": false,
      "inputs": [
        {
          "indexed": true,
          "internalType": "uint256",
          "name": "tokenId",
          "type": "uint256"
        },
        {
          "indexed": true,
          "internalType": "address",
          "name": "listener",
          "type": "address"
        },
        {
          "indexed": false,
          "internalType": "uint256",
          "name": "amount",
          "type": "uint256"
        },
        {
          "indexed": false,
          "internalType": "address",
          "name": "owner",
          "type": "address"
        },
        {
          "indexed": false,
          "internalType": "address",
          "name": "artist",
          "type": "address"
        }
      ],
      "name": "ListenRecorded",
      "type": "event"
    },
    {
      "anonymous": false,
      "inputs": [
        {
          "indexed": false,
          "internalType": "uint256",
          "name": "oldFee",
          "type": "uint256"
        },
        {
          "indexed": false,
          "internalType": "uint256",
          "name": "newFee",
          "type": "uint256"
        }
      ],
      "name": "MarketplaceFeeUpdated",
      "type": "event"
    },
    {
      "anonymous": false,
      "inputs": [
        {
          "indexed": false,
          "internalType": "uint256",
          "name": "_tokenId",
          "type": "uint256"
        }
      ],
      "name": "MetadataUpdate",
      "type": "event"
    },
    {
      "anonymous": false,
      "inputs": [
        {
          "indexed": false,
          "internalType": "uint256",
          "name": "oldFee",
          "type": "uint256"
        },
        {
          "indexed": false,
          "internalType": "uint256",
          "name": "newFee",
          "type": "uint256"
        }
      ],
      "name": "MintFeeUpdated",
      "type": "event"
    },
    {
      "anonymous": false,
      "inputs": [
        {
          "indexed": false,
          "internalType": "uint256",
          "name": "tokenId",
          "type": "uint256"
        },
        {
          "indexed": false,
          "internalType": "address",
          "name": "seller",
          "type": "address"
        },
        {
          "indexed": false,
          "internalType": "uint256",
          "name": "price",
          "type": "uint256"
        }
      ],
      "name": "NFTListed",
      "type": "event"
    },
    {
      "anonymous": false,
      "inputs": [
        {
          "indexed": false,
          "internalType": "uint256",
          "name": "tokenId",
          "type": "uint256"
        },
        {
          "indexed": false,
          "internalType": "address",
          "name": "seller",
          "type": "address"
        }
      ],
      "name": "NFTListingCancelled",
      "type": "event"
    },
    {
      "anonymous": false,
      "inputs": [
        {
          "indexed": false,
          "internalType": "uint256",
          "name": "tokenId",
          "type": "uint256"
        },
        {
          "indexed": false,
          "internalType": "address",
          "name": "seller",
          "type": "address"
        },
        {
          "indexed": false,
          "internalType": "uint256",
          "name": "newPrice",
          "type": "uint256"
        }
      ],
      "name": "NFTListingUpdated",
      "type": "event"
    },
    {
      "anonymous": false,
      "inputs": [
        {
          "indexed": true,
          "internalType": "uint256",
          "name": "tokenId",
          "type": "uint256"
        },
        {
          "indexed": true,
          "internalType": "address",
          "name": "creator",
          "type": "address"
        },
        {
          "indexed": false,
          "internalType": "string",
          "name": "uri",
          "type": "string"
        }
      ],
      "name": "NFTMinted",
      "type": "event"
    },
    {
      "anonymous": false,
      "inputs": [
        {
          "indexed": false,
          "internalType": "uint256",
          "name": "tokenId",
          "type": "uint256"
        },
        {
          "indexed": false,
          "internalType": "address",
          "name": "seller",
          "type": "address"
        },
        {
          "indexed": false,
          "internalType": "address",
          "name": "buyer",
          "type": "address"
        },
        {
          "indexed": false,
          "internalType": "uint256",
          "name": "price",
          "type": "uint256"
        }
      ],
      "name": "NFTSold",
      "type": "event"
    },
    {
      "anonymous": false,
      "inputs": [
        {
          "indexed": true,
          "internalType": "address",
          "name": "previousOwner",
          "type": "address"
        },
        {
          "indexed": true,
          "internalType": "address",
          "name": "newOwner",
          "type": "address"
        }
      ],
      "name": "OwnershipTransferred",
      "type": "event"
    },
    {
      "anonymous": false,
      "inputs": [
        {
          "indexed": true,
          "internalType": "address",
          "name": "recipient",
          "type": "address"
        },
        {
          "indexed": false,
          "internalType": "uint256",
          "name": "amount",
          "type": "uint256"
        }
      ],
      "name": "RoyaltyWithdrawn",
      "type": "event"
    },
    {
      "anonymous": false,
      "inputs": [
        {
          "indexed": true,
          "internalType": "address",
          "name": "from",
          "type": "address"
        },
        {
          "indexed": true,
          "internalType": "address",
          "name": "to",
          "type": "address"
        },
        {
          "indexed": true,
          "internalType": "uint256",
          "name": "tokenId",
          "type": "uint256"
        }
      ],
      "name": "Transfer",
      "type": "event"
    },
    {
      "inputs": [
        {
          "internalType": "address",
          "name": "to",
          "type": "address"
        },
        {
          "internalType": "uint256",
          "name": "tokenId",
          "type": "uint256"
        }
      ],
      "name": "approve",
      "outputs": [],
      "stateMutability": "nonpayable",
      "type": "function"
    },
    {
      "inputs": [
        {
          "internalType": "address",
          "name": "owner",
          "type": "address"
        }
      ],
      "name": "balanceOf",
      "outputs": [
        {
          "internalType": "uint256",
          "name": "",
          "type": "uint256"
        }
      ],
      "stateMutability": "view",
      "type": "function"
    },
    {
      "inputs": [
        {
          "internalType": "uint256",
          "name": "tokenId",
          "type": "uint256"
        }
      ],
      "name": "buyNFT",
      "outputs": [],
      "stateMutability": "payable",
      "type": "function"
    },
    {
      "inputs": [
        {
          "internalType": "uint256",
          "name": "tokenId",
          "type": "uint256"
        }
      ],
      "name": "cancelListing",
      "outputs": [],
      "stateMutability": "nonpayable",
      "type": "function"
    },
    {
      "inputs": [],
      "name": "getAccumulatedPlatformFees",
      "outputs": [
        {
          "internalType": "uint256",
          "name": "",
          "type": "uint256"
        }
      ],
      "stateMutability": "view",
      "type": "function"
    },
    {
      "inputs": [
        {
          "internalType": "uint256",
          "name": "skip",
          "type": "uint256"
        },
        {
          "internalType": "uint256",
          "name": "take",
          "type": "uint256"
        }
      ],
      "name": "getAllListings",
      "outputs": [
        {
          "internalType": "uint256[]",
          "name": "tokenIds",
          "type": "uint256[]"
        },
        {
          "internalType": "address[]",
          "name": "sellers",
          "type": "address[]"
        },
        {
          "internalType": "uint256[]",
          "name": "prices",
          "type": "uint256[]"
        }
      ],
      "stateMutability": "view",
      "type": "function"
    },
    {
      "inputs": [
        {
          "internalType": "uint256",
          "name": "tokenId",
          "type": "uint256"
        }
      ],
      "name": "getApproved",
      "outputs": [
        {
          "internalType": "address",
          "name": "",
          "type": "address"
        }
      ],
      "stateMutability": "view",
      "type": "function"
    },
    {
      "inputs": [
        {
          "internalType": "address",
          "name": "seller",
          "type": "address"
        }
      ],
      "name": "getListingsBySeller",
      "outputs": [
        {
          "internalType": "uint256[]",
          "name": "tokenIds",
          "type": "uint256[]"
        },
        {
          "internalType": "uint256[]",
          "name": "prices",
          "type": "uint256[]"
        }
      ],
      "stateMutability": "view",
      "type": "function"
    },
    {
      "inputs": [],
      "name": "getMarketplaceFee",
      "outputs": [
        {
          "internalType": "uint256",
          "name": "",
          "type": "uint256"
        }
      ],
      "stateMutability": "view",
      "type": "function"
    },
    {
      "inputs": [],
      "name": "getMyListings",
      "outputs": [
        {
          "internalType": "uint256[]",
          "name": "tokenIds",
          "type": "uint256[]"
        },
        {
          "internalType": "uint256[]",
          "name": "prices",
          "type": "uint256[]"
        }
      ],
      "stateMutability": "view",
      "type": "function"
    },
    {
      "inputs": [],
      "name": "getMyNFTs",
      "outputs": [
        {
          "internalType": "uint256[]",
          "name": "tokenIds",
          "type": "uint256[]"
        },
        {
          "internalType": "bool[]",
          "name": "isListed",
          "type": "bool[]"
        }
      ],
      "stateMutability": "view",
      "type": "function"
    },
    {
      "inputs": [
        {
          "internalType": "address",
          "name": "owner",
          "type": "address"
        }
      ],
      "name": "getNFTsByOwner",
      "outputs": [
        {
          "internalType": "uint256[]",
          "name": "tokenIds",
          "type": "uint256[]"
        },
        {
          "internalType": "bool[]",
          "name": "isListed",
          "type": "bool[]"
        }
      ],
      "stateMutability": "view",
      "type": "function"
    },
    {
      "inputs": [
        {
          "internalType": "address",
          "name": "recipient",
          "type": "address"
        }
      ],
      "name": "getPendingRoyaltiesForAddress",
      "outputs": [
        {
          "internalType": "uint256",
          "name": "",
          "type": "uint256"
        }
      ],
      "stateMutability": "view",
      "type": "function"
    },
    {
      "inputs": [],
      "name": "getTotalPendingRoyalties",
      "outputs": [
        {
          "internalType": "uint256",
          "name": "",
          "type": "uint256"
        }
      ],
      "stateMutability": "view",
      "type": "function"
    },
    {
      "inputs": [
        {
          "internalType": "address",
          "name": "owner",
          "type": "address"
        },
        {
          "internalType": "address",
          "name": "operator",
          "type": "address"
        }
      ],
      "name": "isApprovedForAll",
      "outputs": [
        {
          "internalType": "bool",
          "name": "",
          "type": "bool"
        }
      ],
      "stateMutability": "view",
      "type": "function"
    },
    {
      "inputs": [
        {
          "internalType": "uint256",
          "name": "tokenId",
          "type": "uint256"
        },
        {
          "internalType": "uint256",
          "name": "price",
          "type": "uint256"
        }
      ],
      "name": "listNFT",
      "outputs": [],
      "stateMutability": "nonpayable",
      "type": "function"
    },
    {
      "inputs": [],
      "name": "marketplaceFeePercentage",
      "outputs": [
        {
          "internalType": "uint256",
          "name": "",
          "type": "uint256"
        }
      ],
      "stateMutability": "view",
      "type": "function"
    },
    {
      "inputs": [
        {
          "internalType": "string",
          "name": "uri",
          "type": "string"
        },
        {
          "internalType": "uint256",
          "name": "salesRoyaltyPercentage",
          "type": "uint256"
        },
        {
          "internalType": "uint256",
          "name": "ownerListenPercentage",
          "type": "uint256"
        }
      ],
      "name": "mint",
      "outputs": [
        {
          "internalType": "uint256",
          "name": "",
          "type": "uint256"
        }
      ],
      "stateMutability": "payable",
      "type": "function"
    },
    {
      "inputs": [],
      "name": "mintFee",
      "outputs": [
        {
          "internalType": "uint256",
          "name": "",
          "type": "uint256"
        }
      ],
      "stateMutability": "view",
      "type": "function"
    },
    {
      "inputs": [],
      "name": "name",
      "outputs": [
        {
          "internalType": "string",
          "name": "",
          "type": "string"
        }
      ],
      "stateMutability": "view",
      "type": "function"
    },
    {
      "inputs": [],
      "name": "owner",
      "outputs": [
        {
          "internalType": "address",
          "name": "",
          "type": "address"
        }
      ],
      "stateMutability": "view",
      "type": "function"
    },
    {
      "inputs": [
        {
          "internalType": "uint256",
          "name": "tokenId",
          "type": "uint256"
        }
      ],
      "name": "ownerOf",
      "outputs": [
        {
          "internalType": "address",
          "name": "",
          "type": "address"
        }
      ],
      "stateMutability": "view",
      "type": "function"
    },
    {
      "inputs": [
        {
          "internalType": "uint256[]",
          "name": "tokenIds",
          "type": "uint256[]"
        },
        {
          "internalType": "uint256[]",
          "name": "amounts",
          "type": "uint256[]"
        }
      ],
      "name": "recordBatchListens",
      "outputs": [],
      "stateMutability": "payable",
      "type": "function"
    },
    {
      "inputs": [
        {
          "internalType": "uint256",
          "name": "tokenId",
          "type": "uint256"
        }
      ],
      "name": "recordListen",
      "outputs": [],
      "stateMutability": "payable",
      "type": "function"
    },
    {
      "inputs": [],
      "name": "renounceOwnership",
      "outputs": [],
      "stateMutability": "nonpayable",
      "type": "function"
    },
    {
      "inputs": [
        {
          "internalType": "uint256",
          "name": "tokenId",
          "type": "uint256"
        },
        {
          "internalType": "uint256",
          "name": "salePrice",
          "type": "uint256"
        }
      ],
      "name": "royaltyInfo",
      "outputs": [
        {
          "internalType": "address",
          "name": "receiver",
          "type": "address"
        },
        {
          "internalType": "uint256",
          "name": "royaltyAmount",
          "type": "uint256"
        }
      ],
      "stateMutability": "view",
      "type": "function"
    },
    {
      "inputs": [
        {
          "internalType": "address",
          "name": "from",
          "type": "address"
        },
        {
          "internalType": "address",
          "name": "to",
          "type": "address"
        },
        {
          "internalType": "uint256",
          "name": "tokenId",
          "type": "uint256"
        }
      ],
      "name": "safeTransferFrom",
      "outputs": [],
      "stateMutability": "nonpayable",
      "type": "function"
    },
    {
      "inputs": [
        {
          "internalType": "address",
          "name": "from",
          "type": "address"
        },
        {
          "internalType": "address",
          "name": "to",
          "type": "address"
        },
        {
          "internalType": "uint256",
          "name": "tokenId",
          "type": "uint256"
        },
        {
          "internalType": "bytes",
          "name": "data",
          "type": "bytes"
        }
      ],
      "name": "safeTransferFrom",
      "outputs": [],
      "stateMutability": "nonpayable",
      "type": "function"
    },
    {
      "inputs": [
        {
          "internalType": "address",
          "name": "operator",
          "type": "address"
        },
        {
          "internalType": "bool",
          "name": "approved",
          "type": "bool"
        }
      ],
      "name": "setApprovalForAll",
      "outputs": [],
      "stateMutability": "nonpayable",
      "type": "function"
    },
    {
      "inputs": [
        {
          "internalType": "uint256",
          "name": "newMarketplaceFee",
          "type": "uint256"
        }
      ],
      "name": "setMarketplaceFee",
      "outputs": [],
      "stateMutability": "nonpayable",
      "type": "function"
    },
    {
      "inputs": [
        {
          "internalType": "uint256",
          "name": "newMintFee",
          "type": "uint256"
        }
      ],
      "name": "setMintFee",
      "outputs": [],
      "stateMutability": "nonpayable",
      "type": "function"
    },
    {
      "inputs": [
        {
          "internalType": "bytes4",
          "name": "interfaceId",
          "type": "bytes4"
        }
      ],
      "name": "supportsInterface",
      "outputs": [
        {
          "internalType": "bool",
          "name": "",
          "type": "bool"
        }
      ],
      "stateMutability": "view",
      "type": "function"
    },
    {
      "inputs": [],
      "name": "symbol",
      "outputs": [
        {
          "internalType": "string",
          "name": "",
          "type": "string"
        }
      ],
      "stateMutability": "view",
      "type": "function"
    },
    {
      "inputs": [
        {
          "internalType": "uint256",
          "name": "tokenId",
          "type": "uint256"
        }
      ],
      "name": "tokenURI",
      "outputs": [
        {
          "internalType": "string",
          "name": "",
          "type": "string"
        }
      ],
      "stateMutability": "view",
      "type": "function"
    },
    {
      "inputs": [
        {
          "internalType": "address",
          "name": "from",
          "type": "address"
        },
        {
          "internalType": "address",
          "name": "to",
          "type": "address"
        },
        {
          "internalType": "uint256",
          "name": "tokenId",
          "type": "uint256"
        }
      ],
      "name": "transferFrom",
      "outputs": [],
      "stateMutability": "nonpayable",
      "type": "function"
    },
    {
      "inputs": [
        {
          "internalType": "address",
          "name": "newOwner",
          "type": "address"
        }
      ],
      "name": "transferOwnership",
      "outputs": [],
      "stateMutability": "nonpayable",
      "type": "function"
    },
    {
      "inputs": [
        {
          "internalType": "uint256",
          "name": "tokenId",
          "type": "uint256"
        },
        {
          "internalType": "uint256",
          "name": "newPrice",
          "type": "uint256"
        }
      ],
      "name": "updateListingPrice",
      "outputs": [],
      "stateMutability": "nonpayable",
      "type": "function"
    },
    {
      "inputs": [],
      "name": "withdrawFees",
      "outputs": [],
      "stateMutability": "nonpayable",
      "type": "function"
    },
    {
      "inputs": [],
      "name": "withdrawRoyalties",
      "outputs": [],
      "stateMutability": "nonpayable",
      "type": "function"
    }
  ],
  "bytecode": "0x608060405260fa600a55662386f26fc10000600b5534801561002057600080fd5b506040516159363803806159368339818101604052810190610042919061028a565b806040518060400160405280600e81526020017f4e46544d61726b6574706c6163650000000000000000000000000000000000008152506040518060400160405280600381526020017f4e4d50000000000000000000000000000000000000000000000000000000000081525081600090816100be9190610507565b5080600190816100ce9190610507565b505050600073ffffffffffffffffffffffffffffffffffffffff168173ffffffffffffffffffffffffffffffffffffffff16036101435760006040517f1e4fbdf700000000000000000000000000000000000000000000000000000000815260040161013a91906105e8565b60405180910390fd5b6101528161016160201b60201c565b50600160088190555050610603565b6000600760009054906101000a900473ffffffffffffffffffffffffffffffffffffffff16905081600760006101000a81548173ffffffffffffffffffffffffffffffffffffffff021916908373ffffffffffffffffffffffffffffffffffffffff1602179055508173ffffffffffffffffffffffffffffffffffffffff168173ffffffffffffffffffffffffffffffffffffffff167f8be0079c531659141344cd1fd0a4f28419497f9722a3daafe3b4186f6b6457e060405160405180910390a35050565b600080fd5b600073ffffffffffffffffffffffffffffffffffffffff82169050919050565b60006102578261022c565b9050919050565b6102678161024c565b811461027257600080fd5b50565b6000815190506102848161025e565b92915050565b6000602082840312156102a05761029f610227565b5b60006102ae84828501610275565b91505092915050565b600081519050919050565b7f4e487b7100000000000000000000000000000000000000000000000000000000600052604160045260246000fd5b7f4e487b7100000000000000000000000000000000000000000000000000000000600052602260045260246000fd5b6000600282049050600182168061033857607f821691505b60208210810361034b5761034a6102f1565b5b50919050565b60008190508160005260206000209050919050565b60006020601f8301049050919050565b600082821b905092915050565b6000600883026103b37fffffffffffffffffffffffffffffffffffffffffffffffffffffffffffffffff82610376565b6103bd8683610376565b95508019841693508086168417925050509392505050565b6000819050919050565b6000819050919050565b60006104046103ff6103fa846103d5565b6103df565b6103d5565b9050919050565b6000819050919050565b61041e836103e9565b61043261042a8261040b565b848454610383565b825550505050565b600090565b61044761043a565b610452818484610415565b505050565b5b818110156104765761046b60008261043f565b600181019050610458565b5050565b601f8211156104bb5761048c81610351565b61049584610366565b810160208510156104a4578190505b6104b86104b085610366565b830182610457565b50505b505050565b600082821c905092915050565b60006104de600019846008026104c0565b1980831691505092915050565b60006104f783836104cd565b9150826002028217905092915050565b610510826102b7565b67ffffffffffffffff811115610529576105286102c2565b5b6105338254610320565b61053e82828561047a565b600060209050601f831160018114610571576000841561055f578287015190505b61056985826104eb565b8655506105d1565b601f19841661057f86610351565b60005b828110156105a757848901518255600182019150602085019450602081019050610582565b868310156105c457848901516105c0601f8916826104cd565b8355505b6001600288020188555050505b505050505050565b6105e28161024c565b82525050565b60006020820190506105fd60008301846105d9565b92915050565b615324806106126000396000f3fe60806040526004361061022f5760003560e01c80636352211e1161012e578063b88d4fde116100ab578063e2afe8b31161006f578063e2afe8b31461080a578063e985e9c514610848578063eddd0d9c14610885578063f2fde38b146108ae578063ffce47f0146108d75761022f565b8063b88d4fde146106fe578063c460494314610727578063c5275fb014610750578063c87b56dd1461078f578063d8cba251146107cc5761022f565b80639407ea98116100f25780639407ea981461062d57806394383f141461065657806395d89b411461067f5780639912c21b146106aa578063a22cb465146106d55761022f565b80636352211e1461055557806370a0823114610592578063715018a6146105cf578063895a08d1146105e65780638da5cb5b146106025761022f565b806323b872dd116101bc57806342842e0e1161018057806342842e0e146104a2578063476343ee146104cb5780634adadddf146104e257806351ed82881461050d578063629cb2e4146105295761022f565b806323b872dd146103cb57806326a7b37b146103f45780632a55205a1461041f578063305a67a81461045d57806337a9e124146104865761022f565b8063095ea7b311610203578063095ea7b314610305578063096101f81461032e57806313966db5146103595780631c635ded1461038457806321c34fcb146103b45761022f565b8062754eea1461023457806301ffc9a71461026057806306fdde031461029d578063081812fc146102c8575b600080fd5b34801561024057600080fd5b50610249610914565b604051610257929190614172565b60405180910390f35b34801561026c57600080fd5b5061028760048036038101906102829190614215565b610928565b604051610294919061425d565b60405180910390f35b3480156102a957600080fd5b506102b261093a565b6040516102bf9190614308565b60405180910390f35b3480156102d457600080fd5b506102ef60048036038101906102ea9190614356565b6109cc565b6040516102fc91906143c4565b60405180910390f35b34801561031157600080fd5b5061032c6004803603810190610327919061440b565b6109e8565b005b34801561033a57600080fd5b506103436109fe565b604051610350919061445a565b60405180910390f35b34801561036557600080fd5b5061036e610a08565b60405161037b919061445a565b60405180910390f35b61039e600480360381019061039991906145aa565b610a0e565b6040516103ab919061445a565b60405180910390f35b3480156103c057600080fd5b506103c9610be3565b005b3480156103d757600080fd5b506103f260048036038101906103ed9190614619565b610d4e565b005b34801561040057600080fd5b50610409610e50565b604051610416919061445a565b60405180910390f35b34801561042b57600080fd5b506104466004803603810190610441919061466c565b610e5a565b6040516104549291906146ac565b60405180910390f35b34801561046957600080fd5b50610484600480360381019061047f9190614356565b610f17565b005b6104a0600480360381019061049b9190614735565b61105d565b005b3480156104ae57600080fd5b506104c960048036038101906104c49190614619565b6114bc565b005b3480156104d757600080fd5b506104e06114dc565b005b3480156104ee57600080fd5b506104f76115d3565b604051610504919061445a565b60405180910390f35b61052760048036038101906105229190614356565b6115d9565b005b34801561053557600080fd5b5061053e611a78565b60405161054c929190614874565b60405180910390f35b34801561056157600080fd5b5061057c60048036038101906105779190614356565b611a8c565b60405161058991906143c4565b60405180910390f35b34801561059e57600080fd5b506105b960048036038101906105b491906148ab565b611a9e565b6040516105c6919061445a565b60405180910390f35b3480156105db57600080fd5b506105e4611b58565b005b61060060048036038101906105fb9190614356565b611b6c565b005b34801561060e57600080fd5b50610617611e18565b60405161062491906143c4565b60405180910390f35b34801561063957600080fd5b50610654600480360381019061064f9190614356565b611e42565b005b34801561066257600080fd5b5061067d6004803603810190610678919061466c565b611ed0565b005b34801561068b57600080fd5b50610694612137565b6040516106a19190614308565b60405180910390f35b3480156106b657600080fd5b506106bf6121c9565b6040516106cc919061445a565b60405180910390f35b3480156106e157600080fd5b506106fc60048036038101906106f79190614904565b6121de565b005b34801561070a57600080fd5b50610725600480360381019061072091906149e5565b6121f4565b005b34801561073357600080fd5b5061074e6004803603810190610749919061466c565b612219565b005b34801561075c57600080fd5b506107776004803603810190610772919061466c565b612373565b60405161078693929190614b26565b60405180910390f35b34801561079b57600080fd5b506107b660048036038101906107b19190614356565b6125c6565b6040516107c39190614308565b60405180910390f35b3480156107d857600080fd5b506107f360048036038101906107ee91906148ab565b6125d8565b604051610801929190614172565b60405180910390f35b34801561081657600080fd5b50610831600480360381019061082c91906148ab565b612844565b60405161083f929190614874565b60405180910390f35b34801561085457600080fd5b5061086f600480360381019061086a9190614b72565b6129d1565b60405161087c919061425d565b60405180910390f35b34801561089157600080fd5b506108ac60048036038101906108a79190614356565b612a65565b005b3480156108ba57600080fd5b506108d560048036038101906108d091906148ab565b612ab8565b005b3480156108e357600080fd5b506108fe60048036038101906108f991906148ab565b612b3e565b60405161090b919061445a565b60405180910390f35b606080610920336125d8565b915091509091565b600061093382612b87565b9050919050565b60606000805461094990614be1565b80601f016020809104026020016040519081016040528092919081815260200182805461097590614be1565b80156109c25780601f10610997576101008083540402835291602001916109c2565b820191906000526020600020905b8154815290600101906020018083116109a557829003601f168201915b5050505050905090565b60006109d782612be8565b506109e182612c70565b9050919050565b6109fa82826109f5612cad565b612cb5565b5050565b6000600c54905090565b600b5481565b6000610a18612cc7565b600b54341015610a54576040517f3d6c250000000000000000000000000000000000000000000000000000000000815260040160405180910390fd5b612710831115610a90576040517fc2b03beb00000000000000000000000000000000000000000000000000000000815260040160405180910390fd5b611388821115610acc576040517fc2b03beb00000000000000000000000000000000000000000000000000000000815260040160405180910390fd5b600060096000815480929190610ae190614c41565b919050559050610af13382612d0d565b610afb8186612d2b565b610b0781338686612d87565b600b54600c6000828254610b1b9190614c89565b92505081905550600b54341115610b81573373ffffffffffffffffffffffffffffffffffffffff166108fc600b5434610b549190614cbd565b9081150290604051600060405180830381858888f19350505050158015610b7f573d6000803e3d6000fd5b505b3373ffffffffffffffffffffffffffffffffffffffff16817f06becd955c918828f6e985541acbf49cc842c9e9bd569fffc7698e721ef1357587604051610bc89190614308565b60405180910390a380915050610bdc612e2f565b9392505050565b610beb612cc7565b6000600f60003373ffffffffffffffffffffffffffffffffffffffff1673ffffffffffffffffffffffffffffffffffffffff16815260200190815260200160002054905060008103610c69576040517fe490344600000000000000000000000000000000000000000000000000000000815260040160405180910390fd5b6000600f60003373ffffffffffffffffffffffffffffffffffffffff1673ffffffffffffffffffffffffffffffffffffffff168152602001908152602001600020819055503373ffffffffffffffffffffffffffffffffffffffff166108fc829081150290604051600060405180830381858888f19350505050158015610cf4573d6000803e3d6000fd5b503373ffffffffffffffffffffffffffffffffffffffff167f9c56d4e207b08f0df71c47be77f4558c7954505688b8f5372c828ed167846e4082604051610d3b919061445a565b60405180910390a250610d4c612e2f565b565b600073ffffffffffffffffffffffffffffffffffffffff168273ffffffffffffffffffffffffffffffffffffffff1603610dc05760006040517f64a0ae92000000000000000000000000000000000000000000000000000000008152600401610db791906143c4565b60405180910390fd5b6000610dd48383610dcf612cad565b612e39565b90508373ffffffffffffffffffffffffffffffffffffffff168173ffffffffffffffffffffffffffffffffffffffff1614610e4a578382826040517f64283d7b000000000000000000000000000000000000000000000000000000008152600401610e4193929190614cf1565b60405180910390fd5b50505050565b6000600a54905090565b6000806000600e60008681526020019081526020016000206040518060600160405290816000820160009054906101000a900473ffffffffffffffffffffffffffffffffffffffff1673ffffffffffffffffffffffffffffffffffffffff1673ffffffffffffffffffffffffffffffffffffffff168152602001600182015481526020016002820154815250509050612710816020015185610efc9190614d28565b610f069190614d99565b915080600001519250509250929050565b3373ffffffffffffffffffffffffffffffffffffffff16610f3782611a8c565b73ffffffffffffffffffffffffffffffffffffffff1614610f84576040517f59dc379f00000000000000000000000000000000000000000000000000000000815260040160405180910390fd5b600d600082815260200190815260200160002060020160009054906101000a900460ff16610fde576040517f665c1c5700000000000000000000000000000000000000000000000000000000815260040160405180910390fd5b6000600d600083815260200190815260200160002060020160006101000a81548160ff02191690831515021790555061101681613053565b6110216000826109e8565b7f60d684fb8e0e3f4ae9b51912760d57e90172fe4eac3d2faed8f0b97fa6030cdb8133604051611052929190614dca565b60405180910390a150565b611065612cc7565b600084849050036110a2576040517fdf93b76400000000000000000000000000000000000000000000000000000000815260040160405180910390fd5b8181905084849050146110e1576040517fa24a13a600000000000000000000000000000000000000000000000000000000815260040160405180910390fd5b6000805b838390508110156111245783838281811061110357611102614df3565b5b90506020020135826111159190614c89565b915080806001019150506110e5565b508034101561115f576040517f1c92b1dd00000000000000000000000000000000000000000000000000000000815260040160405180910390fd5b60005b8585905081101561145157600086868381811061118257611181614df3565b5b90506020020135905060008585848181106111a05761119f614df3565b5b905060200201359050600081036111e3576040517f356680b700000000000000000000000000000000000000000000000000000000815260040160405180910390fd5b6000600e60008481526020019081526020016000206040518060600160405290816000820160009054906101000a900473ffffffffffffffffffffffffffffffffffffffff1673ffffffffffffffffffffffffffffffffffffffff1673ffffffffffffffffffffffffffffffffffffffff168152602001600182015481526020016002820154815250509050600061127a84611a8c565b905060006127108360400151856112919190614d28565b61129b9190614d99565b9050600081856112ab9190614cbd565b90506000821180156112ea5750600073ffffffffffffffffffffffffffffffffffffffff168373ffffffffffffffffffffffffffffffffffffffff1614155b156113465781600f60008573ffffffffffffffffffffffffffffffffffffffff1673ffffffffffffffffffffffffffffffffffffffff168152602001908152602001600020600082825461133e9190614c89565b925050819055505b6000811180156113875750600073ffffffffffffffffffffffffffffffffffffffff16846000015173ffffffffffffffffffffffffffffffffffffffff1614155b156113e75780600f6000866000015173ffffffffffffffffffffffffffffffffffffffff1673ffffffffffffffffffffffffffffffffffffffff16815260200190815260200160002060008282546113df9190614c89565b925050819055505b3373ffffffffffffffffffffffffffffffffffffffff16867f5b1268b5568241ae87c825c721d9794e1ad340648593a20317e8bb1562e6c28e8786886000015160405161143693929190614e22565b60405180910390a35050505050508080600101915050611162565b50803411156114ad573373ffffffffffffffffffffffffffffffffffffffff166108fc82346114809190614cbd565b9081150290604051600060405180830381858888f193505050501580156114ab573d6000803e3d6000fd5b505b506114b6612e2f565b50505050565b6114d7838383604051806020016040528060008152506121f4565b505050565b6114e461312c565b6000600c54905060008103611525576040517f6806da6800000000000000000000000000000000000000000000000000000000815260040160405180910390fd5b6000600c81905550611535611e18565b73ffffffffffffffffffffffffffffffffffffffff166108fc829081150290604051600060405180830381858888f1935050505015801561157a573d6000803e3d6000fd5b50611583611e18565b73ffffffffffffffffffffffffffffffffffffffff167fc0819c13be868895eb93e40eaceb96de976442fa1d404e5c55f14bb65a8c489a826040516115c8919061445a565b60405180910390a250565b600a5481565b6115e1612cc7565b6000600d60008381526020019081526020016000206040518060600160405290816000820160009054906101000a900473ffffffffffffffffffffffffffffffffffffffff1673ffffffffffffffffffffffffffffffffffffffff1673ffffffffffffffffffffffffffffffffffffffff168152602001600182015481526020016002820160009054906101000a900460ff161515151581525050905080604001516116b9576040517f665c1c5700000000000000000000000000000000000000000000000000000000815260040160405180910390fd5b80602001513410156116f7576040517f356680b700000000000000000000000000000000000000000000000000000000815260040160405180910390fd5b806000015173ffffffffffffffffffffffffffffffffffffffff1661171b836131b3565b73ffffffffffffffffffffffffffffffffffffffff1614611768576040517f519d998b00000000000000000000000000000000000000000000000000000000815260040160405180910390fd5b6000600d600084815260200190815260200160002060020160006101000a81548160ff0219169083151502179055506117a082613053565b6000612710600a5483602001516117b79190614d28565b6117c19190614d99565b905080600c60008282546117d59190614c89565b925050819055506000600e60008581526020019081526020016000206040518060600160405290816000820160009054906101000a900473ffffffffffffffffffffffffffffffffffffffff1673ffffffffffffffffffffffffffffffffffffffff1673ffffffffffffffffffffffffffffffffffffffff1681526020016001820154815260200160028201548152505090506000612710826020015185602001516118819190614d28565b61188b9190614d99565b90506000818486602001516118a09190614cbd565b6118aa9190614cbd565b90506118bb856000015133886131f0565b6000821180156118fc5750600073ffffffffffffffffffffffffffffffffffffffff16836000015173ffffffffffffffffffffffffffffffffffffffff1614155b1561195c5781600f6000856000015173ffffffffffffffffffffffffffffffffffffffff1673ffffffffffffffffffffffffffffffffffffffff16815260200190815260200160002060008282546119549190614c89565b925050819055505b60008111156119c05780600f6000876000015173ffffffffffffffffffffffffffffffffffffffff1673ffffffffffffffffffffffffffffffffffffffff16815260200190815260200160002060008282546119b89190614c89565b925050819055505b8460200151341115611a23573373ffffffffffffffffffffffffffffffffffffffff166108fc8660200151346119f69190614cbd565b9081150290604051600060405180830381858888f19350505050158015611a21573d6000803e3d6000fd5b505b7f8562eb94748e30bb0071e932744ce902b460c683474fcb3bfd567ffa16b1afb2868660000151338860200151604051611a609493929190614e59565b60405180910390a15050505050611a75612e2f565b50565b606080611a8433612844565b915091509091565b6000611a9782612be8565b9050919050565b60008073ffffffffffffffffffffffffffffffffffffffff168273ffffffffffffffffffffffffffffffffffffffff1603611b115760006040517f89c62b64000000000000000000000000000000000000000000000000000000008152600401611b0891906143c4565b60405180910390fd5b600360008373ffffffffffffffffffffffffffffffffffffffff1673ffffffffffffffffffffffffffffffffffffffff168152602001908152602001600020549050919050565b611b6061312c565b611b6a600061335d565b565b611b74612cc7565b6000600e60008381526020019081526020016000206040518060600160405290816000820160009054906101000a900473ffffffffffffffffffffffffffffffffffffffff1673ffffffffffffffffffffffffffffffffffffffff1673ffffffffffffffffffffffffffffffffffffffff1681526020016001820154815260200160028201548152505090506000611c0b83611a8c565b905060003403611c47576040517f356680b700000000000000000000000000000000000000000000000000000000815260040160405180910390fd5b6000612710836040015134611c5c9190614d28565b611c669190614d99565b905060008134611c769190614cbd565b9050600082118015611cb55750600073ffffffffffffffffffffffffffffffffffffffff168373ffffffffffffffffffffffffffffffffffffffff1614155b15611d115781600f60008573ffffffffffffffffffffffffffffffffffffffff1673ffffffffffffffffffffffffffffffffffffffff1681526020019081526020016000206000828254611d099190614c89565b925050819055505b600081118015611d525750600073ffffffffffffffffffffffffffffffffffffffff16846000015173ffffffffffffffffffffffffffffffffffffffff1614155b15611db25780600f6000866000015173ffffffffffffffffffffffffffffffffffffffff1673ffffffffffffffffffffffffffffffffffffffff1681526020019081526020016000206000828254611daa9190614c89565b925050819055505b3373ffffffffffffffffffffffffffffffffffffffff16857f5b1268b5568241ae87c825c721d9794e1ad340648593a20317e8bb1562e6c28e34868860000151604051611e0193929190614e22565b60405180910390a350505050611e15612e2f565b50565b6000600760009054906101000a900473ffffffffffffffffffffffffffffffffffffffff16905090565b611e4a61312c565b6103e88110611e85576040517fcd4e616700000000000000000000000000000000000000000000000000000000815260040160405180910390fd5b6000600a54905081600a819055507f936008f1e981d6f48d4a529714c27d74d644750a1d215451212ce0f2476f2fbc8183604051611ec4929190614e9e565b60405180910390a15050565b611ed8612cc7565b3373ffffffffffffffffffffffffffffffffffffffff16611ef883611a8c565b73ffffffffffffffffffffffffffffffffffffffff1614611f45576040517f59dc379f00000000000000000000000000000000000000000000000000000000815260040160405180910390fd5b60008103611f7e576040517ebfc92100000000000000000000000000000000000000000000000000000000815260040160405180910390fd5b600d600083815260200190815260200160002060020160009054906101000a900460ff1615611fd9576040517fa3d582ec00000000000000000000000000000000000000000000000000000000815260040160405180910390fd5b60405180606001604052803373ffffffffffffffffffffffffffffffffffffffff16815260200182815260200160011515815250600d600084815260200190815260200160002060008201518160000160006101000a81548173ffffffffffffffffffffffffffffffffffffffff021916908373ffffffffffffffffffffffffffffffffffffffff1602179055506020820151816001015560408201518160020160006101000a81548160ff021916908315150217905550905050601082908060018154018082558091505060019003906000526020600020016000909190919091505560016010805490506120cf9190614cbd565b60116000848152602001908152602001600020819055506120f030836109e8565b7f5f9c03de076f5063cd3ebcfe8ef7aa8af378e4b35a83c77ba9777e97083879a282338360405161212393929190614ec7565b60405180910390a1612133612e2f565b5050565b60606001805461214690614be1565b80601f016020809104026020016040519081016040528092919081815260200182805461217290614be1565b80156121bf5780601f10612194576101008083540402835291602001916121bf565b820191906000526020600020905b8154815290600101906020018083116121a257829003601f168201915b5050505050905090565b6000600c54476121d99190614cbd565b905090565b6121f06121e9612cad565b8383613423565b5050565b6121ff848484610d4e565b61221361220a612cad565b85858585613592565b50505050565b3373ffffffffffffffffffffffffffffffffffffffff1661223983611a8c565b73ffffffffffffffffffffffffffffffffffffffff1614612286576040517f59dc379f00000000000000000000000000000000000000000000000000000000815260040160405180910390fd5b600d600083815260200190815260200160002060020160009054906101000a900460ff166122e0576040517f665c1c5700000000000000000000000000000000000000000000000000000000815260040160405180910390fd5b60008103612319576040517ebfc92100000000000000000000000000000000000000000000000000000000815260040160405180910390fd5b80600d6000848152602001908152602001600020600101819055507f86a36861149c34cf3a9eed4e4f983f778151969b416eabfc195cfceada05f49882338360405161236793929190614ec7565b60405180910390a15050565b606080606060006010805490509050600085905081871061239757600090506123ba565b8186886123a49190614c89565b11156123b95786826123b69190614cbd565b90505b5b8067ffffffffffffffff8111156123d4576123d361447f565b5b6040519080825280602002602001820160405280156124025781602001602082028036833780820191505090505b5094508067ffffffffffffffff81111561241f5761241e61447f565b5b60405190808252806020026020018201604052801561244d5781602001602082028036833780820191505090505b5093508067ffffffffffffffff81111561246a5761246961447f565b5b6040519080825280602002602001820160405280156124985781602001602082028036833780820191505090505b50925060005b818110156125bc5760006010828a6124b69190614c89565b815481106124c7576124c6614df3565b5b90600052602060002001549050808783815181106124e8576124e7614df3565b5b602002602001018181525050600d600082815260200190815260200160002060000160009054906101000a900473ffffffffffffffffffffffffffffffffffffffff1686838151811061253e5761253d614df3565b5b602002602001019073ffffffffffffffffffffffffffffffffffffffff16908173ffffffffffffffffffffffffffffffffffffffff1681525050600d6000828152602001908152602001600020600101548583815181106125a2576125a1614df3565b5b60200260200101818152505050808060010191505061249e565b5050509250925092565b60606125d182613743565b9050919050565b6060806000805b6010805490508110156126955760006010828154811061260257612601614df3565b5b906000526020600020015490508573ffffffffffffffffffffffffffffffffffffffff16600d600083815260200190815260200160002060000160009054906101000a900473ffffffffffffffffffffffffffffffffffffffff1673ffffffffffffffffffffffffffffffffffffffff160361268757828061268390614c41565b9350505b5080806001019150506125df565b508067ffffffffffffffff8111156126b0576126af61447f565b5b6040519080825280602002602001820160405280156126de5781602001602082028036833780820191505090505b5092508067ffffffffffffffff8111156126fb576126fa61447f565b5b6040519080825280602002602001820160405280156127295781602001602082028036833780820191505090505b5091506000805b60108054905081101561283c5760006010828154811061275357612752614df3565b5b906000526020600020015490508673ffffffffffffffffffffffffffffffffffffffff16600d600083815260200190815260200160002060000160009054906101000a900473ffffffffffffffffffffffffffffffffffffffff1673ffffffffffffffffffffffffffffffffffffffff160361282e57808684815181106127dd576127dc614df3565b5b602002602001018181525050600d60008281526020019081526020016000206001015485848151811061281357612812614df3565b5b602002602001018181525050828061282a90614c41565b9350505b508080600101915050612730565b505050915091565b606080600061285284611a9e565b90508067ffffffffffffffff81111561286e5761286d61447f565b5b60405190808252806020026020018201604052801561289c5781602001602082028036833780820191505090505b5092508067ffffffffffffffff8111156128b9576128b861447f565b5b6040519080825280602002602001820160405280156128e75781602001602082028036833780820191505090505b5091506000805b600954811080156128fe57508282105b156129c9578573ffffffffffffffffffffffffffffffffffffffff16612923826131b3565b73ffffffffffffffffffffffffffffffffffffffff16036129b6578085838151811061295257612951614df3565b5b602002602001018181525050600d600082815260200190815260200160002060020160009054906101000a900460ff1684838151811061299557612994614df3565b5b60200260200101901515908115158152505081806129b290614c41565b9250505b80806129c190614c41565b9150506128ee565b505050915091565b6000600560008473ffffffffffffffffffffffffffffffffffffffff1673ffffffffffffffffffffffffffffffffffffffff16815260200190815260200160002060008373ffffffffffffffffffffffffffffffffffffffff1673ffffffffffffffffffffffffffffffffffffffff16815260200190815260200160002060009054906101000a900460ff16905092915050565b612a6d61312c565b6000600b54905081600b819055507f7864bf708cae822050e5f50960a0de31bd6fe7620a8f67a48582fb95f29c114a8183604051612aac929190614e9e565b60405180910390a15050565b612ac061312c565b600073ffffffffffffffffffffffffffffffffffffffff168173ffffffffffffffffffffffffffffffffffffffff1603612b325760006040517f1e4fbdf7000000000000000000000000000000000000000000000000000000008152600401612b2991906143c4565b60405180910390fd5b612b3b8161335d565b50565b6000600f60008373ffffffffffffffffffffffffffffffffffffffff1673ffffffffffffffffffffffffffffffffffffffff168152602001908152602001600020549050919050565b6000634906490660e01b7bffffffffffffffffffffffffffffffffffffffffffffffffffffffff1916827bffffffffffffffffffffffffffffffffffffffffffffffffffffffff19161480612be15750612be082613856565b5b9050919050565b600080612bf4836131b3565b9050600073ffffffffffffffffffffffffffffffffffffffff168173ffffffffffffffffffffffffffffffffffffffff1603612c6757826040517f7e273289000000000000000000000000000000000000000000000000000000008152600401612c5e919061445a565b60405180910390fd5b80915050919050565b60006004600083815260200190815260200160002060009054906101000a900473ffffffffffffffffffffffffffffffffffffffff169050919050565b600033905090565b612cc28383836001613938565b505050565b600260085403612d03576040517f3ee5aeb500000000000000000000000000000000000000000000000000000000815260040160405180910390fd5b6002600881905550565b612d27828260405180602001604052806000815250613afd565b5050565b80600660008481526020019081526020016000209081612d4b91906150aa565b507ff8e1a15aba9398e019f0b49df1a4fde98ee17ae345cb5f6b5e2c27f5033e8ce782604051612d7b919061445a565b60405180910390a15050565b60405180606001604052808473ffffffffffffffffffffffffffffffffffffffff16815260200183815260200182815250600e600086815260200190815260200160002060008201518160000160006101000a81548173ffffffffffffffffffffffffffffffffffffffff021916908373ffffffffffffffffffffffffffffffffffffffff160217905550602082015181600101556040820151816002015590505050505050565b6001600881905550565b600080612e45846131b3565b9050600073ffffffffffffffffffffffffffffffffffffffff168373ffffffffffffffffffffffffffffffffffffffff1614612e8757612e86818486613b21565b5b600073ffffffffffffffffffffffffffffffffffffffff168173ffffffffffffffffffffffffffffffffffffffff1614612f1857612ec9600085600080613938565b6001600360008373ffffffffffffffffffffffffffffffffffffffff1673ffffffffffffffffffffffffffffffffffffffff168152602001908152602001600020600082825403925050819055505b600073ffffffffffffffffffffffffffffffffffffffff168573ffffffffffffffffffffffffffffffffffffffff1614612f9b576001600360008773ffffffffffffffffffffffffffffffffffffffff1673ffffffffffffffffffffffffffffffffffffffff168152602001908152602001600020600082825401925050819055505b846002600086815260200190815260200160002060006101000a81548173ffffffffffffffffffffffffffffffffffffffff021916908373ffffffffffffffffffffffffffffffffffffffff160217905550838573ffffffffffffffffffffffffffffffffffffffff168273ffffffffffffffffffffffffffffffffffffffff167fddf252ad1be2c89b69c2b068fc378daa952ba7f163c4a11628f55a4df523b3ef60405160405180910390a4809150509392505050565b600060016010805490506130679190614cbd565b90506000601160008481526020019081526020016000205490508181146130e85760006010838154811061309e5761309d614df3565b5b9060005260206000200154905081601160008381526020019081526020016000208190555080601083815481106130d8576130d7614df3565b5b9060005260206000200181905550505b60108054806130fa576130f961517c565b5b600190038181906000526020600020016000905590556011600084815260200190815260200160002060009055505050565b613134612cad565b73ffffffffffffffffffffffffffffffffffffffff16613152611e18565b73ffffffffffffffffffffffffffffffffffffffff16146131b157613175612cad565b6040517f118cdaa70000000000000000000000000000000000000000000000000000000081526004016131a891906143c4565b60405180910390fd5b565b60006002600083815260200190815260200160002060009054906101000a900473ffffffffffffffffffffffffffffffffffffffff169050919050565b600073ffffffffffffffffffffffffffffffffffffffff168273ffffffffffffffffffffffffffffffffffffffff16036132625760006040517f64a0ae9200000000000000000000000000000000000000000000000000000000815260040161325991906143c4565b60405180910390fd5b600061327083836000612e39565b9050600073ffffffffffffffffffffffffffffffffffffffff168173ffffffffffffffffffffffffffffffffffffffff16036132e357816040517f7e2732890000000000000000000000000000000000000000000000000000000081526004016132da919061445a565b60405180910390fd5b8373ffffffffffffffffffffffffffffffffffffffff168173ffffffffffffffffffffffffffffffffffffffff1614613357578382826040517f64283d7b00000000000000000000000000000000000000000000000000000000815260040161334e93929190614cf1565b60405180910390fd5b50505050565b6000600760009054906101000a900473ffffffffffffffffffffffffffffffffffffffff16905081600760006101000a81548173ffffffffffffffffffffffffffffffffffffffff021916908373ffffffffffffffffffffffffffffffffffffffff1602179055508173ffffffffffffffffffffffffffffffffffffffff168173ffffffffffffffffffffffffffffffffffffffff167f8be0079c531659141344cd1fd0a4f28419497f9722a3daafe3b4186f6b6457e060405160405180910390a35050565b600073ffffffffffffffffffffffffffffffffffffffff168273ffffffffffffffffffffffffffffffffffffffff160361349457816040517f5b08ba1800000000000000000000000000000000000000000000000000000000815260040161348b91906143c4565b60405180910390fd5b80600560008573ffffffffffffffffffffffffffffffffffffffff1673ffffffffffffffffffffffffffffffffffffffff16815260200190815260200160002060008473ffffffffffffffffffffffffffffffffffffffff1673ffffffffffffffffffffffffffffffffffffffff16815260200190815260200160002060006101000a81548160ff0219169083151502179055508173ffffffffffffffffffffffffffffffffffffffff168373ffffffffffffffffffffffffffffffffffffffff167f17307eab39ab6107e8899845ad3d59bd9653f200f220920489ca2b5937696c3183604051613585919061425d565b60405180910390a3505050565b60008373ffffffffffffffffffffffffffffffffffffffff163b111561373c578273ffffffffffffffffffffffffffffffffffffffff1663150b7a02868685856040518563ffffffff1660e01b81526004016135f19493929190615200565b6020604051808303816000875af192505050801561362d57506040513d601f19601f8201168201806040525081019061362a9190615261565b60015b6136b1573d806000811461365d576040519150601f19603f3d011682016040523d82523d6000602084013e613662565b606091505b5060008151036136a957836040517f64a0ae920000000000000000000000000000000000000000000000000000000081526004016136a091906143c4565b60405180910390fd5b805181602001fd5b63150b7a0260e01b7bffffffffffffffffffffffffffffffffffffffffffffffffffffffff1916817bffffffffffffffffffffffffffffffffffffffffffffffffffffffff19161461373a57836040517f64a0ae9200000000000000000000000000000000000000000000000000000000815260040161373191906143c4565b60405180910390fd5b505b5050505050565b606061374e82612be8565b50600060066000848152602001908152602001600020805461376f90614be1565b80601f016020809104026020016040519081016040528092919081815260200182805461379b90614be1565b80156137e85780601f106137bd576101008083540402835291602001916137e8565b820191906000526020600020905b8154815290600101906020018083116137cb57829003601f168201915b5050505050905060006137f9613be5565b9050600081510361380e578192505050613851565b60008251111561384357808260405160200161382b9291906152ca565b60405160208183030381529060405292505050613851565b61384c84613bfc565b925050505b919050565b60007f80ac58cd000000000000000000000000000000000000000000000000000000007bffffffffffffffffffffffffffffffffffffffffffffffffffffffff1916827bffffffffffffffffffffffffffffffffffffffffffffffffffffffff1916148061392157507f5b5e139f000000000000000000000000000000000000000000000000000000007bffffffffffffffffffffffffffffffffffffffffffffffffffffffff1916827bffffffffffffffffffffffffffffffffffffffffffffffffffffffff1916145b80613931575061393082613c65565b5b9050919050565b80806139715750600073ffffffffffffffffffffffffffffffffffffffff168273ffffffffffffffffffffffffffffffffffffffff1614155b15613aa557600061398184612be8565b9050600073ffffffffffffffffffffffffffffffffffffffff168373ffffffffffffffffffffffffffffffffffffffff16141580156139ec57508273ffffffffffffffffffffffffffffffffffffffff168173ffffffffffffffffffffffffffffffffffffffff1614155b80156139ff57506139fd81846129d1565b155b15613a4157826040517fa9fbf51f000000000000000000000000000000000000000000000000000000008152600401613a3891906143c4565b60405180910390fd5b8115613aa357838573ffffffffffffffffffffffffffffffffffffffff168273ffffffffffffffffffffffffffffffffffffffff167f8c5be1e5ebec7d5bd14f71427d1e84f3dd0314c0f7b2291e5b200ac8c7c3b92560405160405180910390a45b505b836004600085815260200190815260200160002060006101000a81548173ffffffffffffffffffffffffffffffffffffffff021916908373ffffffffffffffffffffffffffffffffffffffff16021790555050505050565b613b078383613ccf565b613b1c613b12612cad565b6000858585613592565b505050565b613b2c838383613dc8565b613be057600073ffffffffffffffffffffffffffffffffffffffff168373ffffffffffffffffffffffffffffffffffffffff1603613ba157806040517f7e273289000000000000000000000000000000000000000000000000000000008152600401613b98919061445a565b60405180910390fd5b81816040517f177e802f000000000000000000000000000000000000000000000000000000008152600401613bd79291906146ac565b60405180910390fd5b505050565b606060405180602001604052806000815250905090565b6060613c0782612be8565b506000613c12613be5565b90506000815111613c325760405180602001604052806000815250613c5d565b80613c3c84613e89565b604051602001613c4d9291906152ca565b6040516020818303038152906040525b915050919050565b60007f01ffc9a7000000000000000000000000000000000000000000000000000000007bffffffffffffffffffffffffffffffffffffffffffffffffffffffff1916827bffffffffffffffffffffffffffffffffffffffffffffffffffffffff1916149050919050565b600073ffffffffffffffffffffffffffffffffffffffff168273ffffffffffffffffffffffffffffffffffffffff1603613d415760006040517f64a0ae92000000000000000000000000000000000000000000000000000000008152600401613d3891906143c4565b60405180910390fd5b6000613d4f83836000612e39565b9050600073ffffffffffffffffffffffffffffffffffffffff168173ffffffffffffffffffffffffffffffffffffffff1614613dc35760006040517f73c6ac6e000000000000000000000000000000000000000000000000000000008152600401613dba91906143c4565b60405180910390fd5b505050565b60008073ffffffffffffffffffffffffffffffffffffffff168373ffffffffffffffffffffffffffffffffffffffff1614158015613e8057508273ffffffffffffffffffffffffffffffffffffffff168473ffffffffffffffffffffffffffffffffffffffff161480613e415750613e4084846129d1565b5b80613e7f57508273ffffffffffffffffffffffffffffffffffffffff16613e6783612c70565b73ffffffffffffffffffffffffffffffffffffffff16145b5b90509392505050565b606060006001613e9884613f57565b01905060008167ffffffffffffffff811115613eb757613eb661447f565b5b6040519080825280601f01601f191660200182016040528015613ee95781602001600182028036833780820191505090505b509050600082602001820190505b600115613f4c578080600190039150507f3031323334353637383961626364656600000000000000000000000000000000600a86061a8153600a8581613f4057613f3f614d6a565b5b04945060008503613ef7575b819350505050919050565b600080600090507a184f03e93ff9f4daa797ed6e38ed64bf6a1f0100000000000000008310613fb5577a184f03e93ff9f4daa797ed6e38ed64bf6a1f0100000000000000008381613fab57613faa614d6a565b5b0492506040810190505b6d04ee2d6d415b85acef81000000008310613ff2576d04ee2d6d415b85acef81000000008381613fe857613fe7614d6a565b5b0492506020810190505b662386f26fc10000831061402157662386f26fc10000838161401757614016614d6a565b5b0492506010810190505b6305f5e100831061404a576305f5e10083816140405761403f614d6a565b5b0492506008810190505b612710831061406f57612710838161406557614064614d6a565b5b0492506004810190505b60648310614092576064838161408857614087614d6a565b5b0492506002810190505b600a83106140a1576001810190505b80915050919050565b600081519050919050565b600082825260208201905092915050565b6000819050602082019050919050565b6000819050919050565b6140e9816140d6565b82525050565b60006140fb83836140e0565b60208301905092915050565b6000602082019050919050565b600061411f826140aa565b61412981856140b5565b9350614134836140c6565b8060005b8381101561416557815161414c88826140ef565b975061415783614107565b925050600181019050614138565b5085935050505092915050565b6000604082019050818103600083015261418c8185614114565b905081810360208301526141a08184614114565b90509392505050565b6000604051905090565b600080fd5b600080fd5b60007fffffffff0000000000000000000000000000000000000000000000000000000082169050919050565b6141f2816141bd565b81146141fd57600080fd5b50565b60008135905061420f816141e9565b92915050565b60006020828403121561422b5761422a6141b3565b5b600061423984828501614200565b91505092915050565b60008115159050919050565b61425781614242565b82525050565b6000602082019050614272600083018461424e565b92915050565b600081519050919050565b600082825260208201905092915050565b60005b838110156142b2578082015181840152602081019050614297565b60008484015250505050565b6000601f19601f8301169050919050565b60006142da82614278565b6142e48185614283565b93506142f4818560208601614294565b6142fd816142be565b840191505092915050565b6000602082019050818103600083015261432281846142cf565b905092915050565b614333816140d6565b811461433e57600080fd5b50565b6000813590506143508161432a565b92915050565b60006020828403121561436c5761436b6141b3565b5b600061437a84828501614341565b91505092915050565b600073ffffffffffffffffffffffffffffffffffffffff82169050919050565b60006143ae82614383565b9050919050565b6143be816143a3565b82525050565b60006020820190506143d960008301846143b5565b92915050565b6143e8816143a3565b81146143f357600080fd5b50565b600081359050614405816143df565b92915050565b60008060408385031215614422576144216141b3565b5b6000614430858286016143f6565b925050602061444185828601614341565b9150509250929050565b614454816140d6565b82525050565b600060208201905061446f600083018461444b565b92915050565b600080fd5b600080fd5b7f4e487b7100000000000000000000000000000000000000000000000000000000600052604160045260246000fd5b6144b7826142be565b810181811067ffffffffffffffff821117156144d6576144d561447f565b5b80604052505050565b60006144e96141a9565b90506144f582826144ae565b919050565b600067ffffffffffffffff8211156145155761451461447f565b5b61451e826142be565b9050602081019050919050565b82818337600083830152505050565b600061454d614548846144fa565b6144df565b9050828152602081018484840111156145695761456861447a565b5b61457484828561452b565b509392505050565b600082601f83011261459157614590614475565b5b81356145a184826020860161453a565b91505092915050565b6000806000606084860312156145c3576145c26141b3565b5b600084013567ffffffffffffffff8111156145e1576145e06141b8565b5b6145ed8682870161457c565b93505060206145fe86828701614341565b925050604061460f86828701614341565b9150509250925092565b600080600060608486031215614632576146316141b3565b5b6000614640868287016143f6565b9350506020614651868287016143f6565b925050604061466286828701614341565b9150509250925092565b60008060408385031215614683576146826141b3565b5b600061469185828601614341565b92505060206146a285828601614341565b9150509250929050565b60006040820190506146c160008301856143b5565b6146ce602083018461444b565b9392505050565b600080fd5b600080fd5b60008083601f8401126146f5576146f4614475565b5b8235905067ffffffffffffffff811115614712576147116146d5565b5b60208301915083602082028301111561472e5761472d6146da565b5b9250929050565b6000806000806040858703121561474f5761474e6141b3565b5b600085013567ffffffffffffffff81111561476d5761476c6141b8565b5b614779878288016146df565b9450945050602085013567ffffffffffffffff81111561479c5761479b6141b8565b5b6147a8878288016146df565b925092505092959194509250565b600081519050919050565b600082825260208201905092915050565b6000819050602082019050919050565b6147eb81614242565b82525050565b60006147fd83836147e2565b60208301905092915050565b6000602082019050919050565b6000614821826147b6565b61482b81856147c1565b9350614836836147d2565b8060005b8381101561486757815161484e88826147f1565b975061485983614809565b92505060018101905061483a565b5085935050505092915050565b6000604082019050818103600083015261488e8185614114565b905081810360208301526148a28184614816565b90509392505050565b6000602082840312156148c1576148c06141b3565b5b60006148cf848285016143f6565b91505092915050565b6148e181614242565b81146148ec57600080fd5b50565b6000813590506148fe816148d8565b92915050565b6000806040838503121561491b5761491a6141b3565b5b6000614929858286016143f6565b925050602061493a858286016148ef565b9150509250929050565b600067ffffffffffffffff82111561495f5761495e61447f565b5b614968826142be565b9050602081019050919050565b600061498861498384614944565b6144df565b9050828152602081018484840111156149a4576149a361447a565b5b6149af84828561452b565b509392505050565b600082601f8301126149cc576149cb614475565b5b81356149dc848260208601614975565b91505092915050565b600080600080608085870312156149ff576149fe6141b3565b5b6000614a0d878288016143f6565b9450506020614a1e878288016143f6565b9350506040614a2f87828801614341565b925050606085013567ffffffffffffffff811115614a5057614a4f6141b8565b5b614a5c878288016149b7565b91505092959194509250565b600081519050919050565b600082825260208201905092915050565b6000819050602082019050919050565b614a9d816143a3565b82525050565b6000614aaf8383614a94565b60208301905092915050565b6000602082019050919050565b6000614ad382614a68565b614add8185614a73565b9350614ae883614a84565b8060005b83811015614b19578151614b008882614aa3565b9750614b0b83614abb565b925050600181019050614aec565b5085935050505092915050565b60006060820190508181036000830152614b408186614114565b90508181036020830152614b548185614ac8565b90508181036040830152614b688184614114565b9050949350505050565b60008060408385031215614b8957614b886141b3565b5b6000614b97858286016143f6565b9250506020614ba8858286016143f6565b9150509250929050565b7f4e487b7100000000000000000000000000000000000000000000000000000000600052602260045260246000fd5b60006002820490506001821680614bf957607f821691505b602082108103614c0c57614c0b614bb2565b5b50919050565b7f4e487b7100000000000000000000000000000000000000000000000000000000600052601160045260246000fd5b6000614c4c826140d6565b91507fffffffffffffffffffffffffffffffffffffffffffffffffffffffffffffffff8203614c7e57614c7d614c12565b5b600182019050919050565b6000614c94826140d6565b9150614c9f836140d6565b9250828201905080821115614cb757614cb6614c12565b5b92915050565b6000614cc8826140d6565b9150614cd3836140d6565b9250828203905081811115614ceb57614cea614c12565b5b92915050565b6000606082019050614d0660008301866143b5565b614d13602083018561444b565b614d2060408301846143b5565b949350505050565b6000614d33826140d6565b9150614d3e836140d6565b9250828202614d4c816140d6565b91508282048414831517614d6357614d62614c12565b5b5092915050565b7f4e487b7100000000000000000000000000000000000000000000000000000000600052601260045260246000fd5b6000614da4826140d6565b9150614daf836140d6565b925082614dbf57614dbe614d6a565b5b828204905092915050565b6000604082019050614ddf600083018561444b565b614dec60208301846143b5565b9392505050565b7f4e487b7100000000000000000000000000000000000000000000000000000000600052603260045260246000fd5b6000606082019050614e37600083018661444b565b614e4460208301856143b5565b614e5160408301846143b5565b949350505050565b6000608082019050614e6e600083018761444b565b614e7b60208301866143b5565b614e8860408301856143b5565b614e95606083018461444b565b95945050505050565b6000604082019050614eb3600083018561444b565b614ec0602083018461444b565b9392505050565b6000606082019050614edc600083018661444b565b614ee960208301856143b5565b614ef6604083018461444b565b949350505050565b60008190508160005260206000209050919050565b60006020601f8301049050919050565b600082821b905092915050565b600060088302614f607fffffffffffffffffffffffffffffffffffffffffffffffffffffffffffffffff82614f23565b614f6a8683614f23565b95508019841693508086168417925050509392505050565b6000819050919050565b6000614fa7614fa2614f9d846140d6565b614f82565b6140d6565b9050919050565b6000819050919050565b614fc183614f8c565b614fd5614fcd82614fae565b848454614f30565b825550505050565b600090565b614fea614fdd565b614ff5818484614fb8565b505050565b5b818110156150195761500e600082614fe2565b600181019050614ffb565b5050565b601f82111561505e5761502f81614efe565b61503884614f13565b81016020851015615047578190505b61505b61505385614f13565b830182614ffa565b50505b505050565b600082821c905092915050565b600061508160001984600802615063565b1980831691505092915050565b600061509a8383615070565b9150826002028217905092915050565b6150b382614278565b67ffffffffffffffff8111156150cc576150cb61447f565b5b6150d68254614be1565b6150e182828561501d565b600060209050601f8311600181146151145760008415615102578287015190505b61510c858261508e565b865550615174565b601f19841661512286614efe565b60005b8281101561514a57848901518255600182019150602085019450602081019050615125565b868310156151675784890151615163601f891682615070565b8355505b6001600288020188555050505b505050505050565b7f4e487b7100000000000000000000000000000000000000000000000000000000600052603160045260246000fd5b600081519050919050565b600082825260208201905092915050565b60006151d2826151ab565b6151dc81856151b6565b93506151ec818560208601614294565b6151f5816142be565b840191505092915050565b600060808201905061521560008301876143b5565b61522260208301866143b5565b61522f604083018561444b565b818103606083015261524181846151c7565b905095945050505050565b60008151905061525b816141e9565b92915050565b600060208284031215615277576152766141b3565b5b60006152858482850161524c565b91505092915050565b600081905092915050565b60006152a482614278565b6152ae818561528e565b93506152be818560208601614294565b80840191505092915050565b60006152d68285615299565b91506152e28284615299565b9150819050939250505056fea2646970667358221220310119d857e453af3d38fca6acb00a6c8c12b67482c3b07d8cc5da54bab45a0464736f6c634300081c0033",
  "linkReferences": {},
  "deployedLinkReferences": {}
}