{
  "_format": "hh-sol-artifact-1",
  "contractName": "NFTMarketplace",
  "sourceName": "contracts/NFTMarketplace.sol",
  "abi": [
    {
      "inputs": [
        {
          "internalType": "address",
          "name": "initialOwner",
          "type": "address"
        }
      ],
      "stateMutability": "nonpayable",
      "type": "constructor"
    },
    {
      "inputs": [
        {
          "internalType": "address",
          "name": "sender",
          "type": "address"
        },
        {
          "internalType": "uint256",
          "name": "tokenId",
          "type": "uint256"
        },
        {
          "internalType": "address",
          "name": "owner",
          "type": "address"
        }
      ],
      "name": "ERC721IncorrectOwner",
      "type": "error"
    },
    {
      "inputs": [
        {
          "internalType": "address",
          "name": "operator",
          "type": "address"
        },
        {
          "internalType": "uint256",
          "name": "tokenId",
          "type": "uint256"
        }
      ],
      "name": "ERC721InsufficientApproval",
      "type": "error"
    },
    {
      "inputs": [
        {
          "internalType": "address",
          "name": "approver",
          "type": "address"
        }
      ],
      "name": "ERC721InvalidApprover",
      "type": "error"
    },
    {
      "inputs": [
        {
          "internalType": "address",
          "name": "operator",
          "type": "address"
        }
      ],
      "name": "ERC721InvalidOperator",
      "type": "error"
    },
    {
      "inputs": [
        {
          "internalType": "address",
          "name": "owner",
          "type": "address"
        }
      ],
      "name": "ERC721InvalidOwner",
      "type": "error"
    },
    {
      "inputs": [
        {
          "internalType": "address",
          "name": "receiver",
          "type": "address"
        }
      ],
      "name": "ERC721InvalidReceiver",
      "type": "error"
    },
    {
      "inputs": [
        {
          "internalType": "address",
          "name": "sender",
          "type": "address"
        }
      ],
      "name": "ERC721InvalidSender",
      "type": "error"
    },
    {
      "inputs": [
        {
          "internalType": "uint256",
          "name": "tokenId",
          "type": "uint256"
        }
      ],
      "name": "ERC721NonexistentToken",
      "type": "error"
    },
    {
      "inputs": [
        {
          "internalType": "address",
          "name": "owner",
          "type": "address"
        }
      ],
      "name": "OwnableInvalidOwner",
      "type": "error"
    },
    {
      "inputs": [
        {
          "internalType": "address",
          "name": "account",
          "type": "address"
        }
      ],
      "name": "OwnableUnauthorizedAccount",
      "type": "error"
    },
    {
      "inputs": [],
      "name": "ReentrancyGuardReentrantCall",
      "type": "error"
    },
    {
      "anonymous": false,
      "inputs": [
        {
          "indexed": true,
          "internalType": "address",
          "name": "owner",
          "type": "address"
        },
        {
          "indexed": true,
          "internalType": "address",
          "name": "approved",
          "type": "address"
        },
        {
          "indexed": true,
          "internalType": "uint256",
          "name": "tokenId",
          "type": "uint256"
        }
      ],
      "name": "Approval",
      "type": "event"
    },
    {
      "anonymous": false,
      "inputs": [
        {
          "indexed": true,
          "internalType": "address",
          "name": "owner",
          "type": "address"
        },
        {
          "indexed": true,
          "internalType": "address",
          "name": "operator",
          "type": "address"
        },
        {
          "indexed": false,
          "internalType": "bool",
          "name": "approved",
          "type": "bool"
        }
      ],
      "name": "ApprovalForAll",
      "type": "event"
    },
    {
      "anonymous": false,
      "inputs": [
        {
          "indexed": false,
          "internalType": "uint256",
          "name": "_fromTokenId",
          "type": "uint256"
        },
        {
          "indexed": false,
          "internalType": "uint256",
          "name": "_toTokenId",
          "type": "uint256"
        }
      ],
      "name": "BatchMetadataUpdate",
      "type": "event"
    },
    {
      "anonymous": false,
      "inputs": [
        {
          "indexed": false,
          "internalType": "uint256",
          "name": "oldFee",
          "type": "uint256"
        },
        {
          "indexed": false,
          "internalType": "uint256",
          "name": "newFee",
          "type": "uint256"
        }
      ],
      "name": "MarketplaceFeeUpdated",
      "type": "event"
    },
    {
      "anonymous": false,
      "inputs": [
        {
          "indexed": false,
          "internalType": "uint256",
          "name": "_tokenId",
          "type": "uint256"
        }
      ],
      "name": "MetadataUpdate",
      "type": "event"
    },
    {
      "anonymous": false,
      "inputs": [
        {
          "indexed": false,
          "internalType": "uint256",
          "name": "oldFee",
          "type": "uint256"
        },
        {
          "indexed": false,
          "internalType": "uint256",
          "name": "newFee",
          "type": "uint256"
        }
      ],
      "name": "MintFeeUpdated",
      "type": "event"
    },
    {
      "anonymous": false,
      "inputs": [
        {
          "indexed": false,
          "internalType": "uint256",
          "name": "tokenId",
          "type": "uint256"
        },
        {
          "indexed": false,
          "internalType": "address",
          "name": "seller",
          "type": "address"
        },
        {
          "indexed": false,
          "internalType": "uint256",
          "name": "price",
          "type": "uint256"
        }
      ],
      "name": "NFTListed",
      "type": "event"
    },
    {
      "anonymous": false,
      "inputs": [
        {
          "indexed": false,
          "internalType": "uint256",
          "name": "tokenId",
          "type": "uint256"
        },
        {
          "indexed": false,
          "internalType": "address",
          "name": "seller",
          "type": "address"
        }
      ],
      "name": "NFTListingCancelled",
      "type": "event"
    },
    {
      "anonymous": false,
      "inputs": [
        {
          "indexed": false,
          "internalType": "uint256",
          "name": "tokenId",
          "type": "uint256"
        },
        {
          "indexed": false,
          "internalType": "address",
          "name": "seller",
          "type": "address"
        },
        {
          "indexed": false,
          "internalType": "uint256",
          "name": "newPrice",
          "type": "uint256"
        }
      ],
      "name": "NFTListingUpdated",
      "type": "event"
    },
    {
      "anonymous": false,
      "inputs": [
        {
          "indexed": true,
          "internalType": "uint256",
          "name": "tokenId",
          "type": "uint256"
        },
        {
          "indexed": true,
          "internalType": "address",
          "name": "creator",
          "type": "address"
        },
        {
          "indexed": false,
          "internalType": "string",
          "name": "uri",
          "type": "string"
        }
      ],
      "name": "NFTMinted",
      "type": "event"
    },
    {
      "anonymous": false,
      "inputs": [
        {
          "indexed": false,
          "internalType": "uint256",
          "name": "tokenId",
          "type": "uint256"
        },
        {
          "indexed": false,
          "internalType": "address",
          "name": "seller",
          "type": "address"
        },
        {
          "indexed": false,
          "internalType": "address",
          "name": "buyer",
          "type": "address"
        },
        {
          "indexed": false,
          "internalType": "uint256",
          "name": "price",
          "type": "uint256"
        }
      ],
      "name": "NFTSold",
      "type": "event"
    },
    {
      "anonymous": false,
      "inputs": [
        {
          "indexed": true,
          "internalType": "address",
          "name": "previousOwner",
          "type": "address"
        },
        {
          "indexed": true,
          "internalType": "address",
          "name": "newOwner",
          "type": "address"
        }
      ],
      "name": "OwnershipTransferred",
      "type": "event"
    },
    {
      "anonymous": false,
      "inputs": [
        {
          "indexed": true,
          "internalType": "address",
          "name": "from",
          "type": "address"
        },
        {
          "indexed": true,
          "internalType": "address",
          "name": "to",
          "type": "address"
        },
        {
          "indexed": true,
          "internalType": "uint256",
          "name": "tokenId",
          "type": "uint256"
        }
      ],
      "name": "Transfer",
      "type": "event"
    },
    {
      "inputs": [
        {
          "internalType": "address",
          "name": "to",
          "type": "address"
        },
        {
          "internalType": "uint256",
          "name": "tokenId",
          "type": "uint256"
        }
      ],
      "name": "approve",
      "outputs": [],
      "stateMutability": "nonpayable",
      "type": "function"
    },
    {
      "inputs": [
        {
          "internalType": "address",
          "name": "owner",
          "type": "address"
        }
      ],
      "name": "balanceOf",
      "outputs": [
        {
          "internalType": "uint256",
          "name": "",
          "type": "uint256"
        }
      ],
      "stateMutability": "view",
      "type": "function"
    },
    {
      "inputs": [
        {
          "internalType": "uint256",
          "name": "tokenId",
          "type": "uint256"
        }
      ],
      "name": "buyNFT",
      "outputs": [],
      "stateMutability": "payable",
      "type": "function"
    },
    {
      "inputs": [
        {
          "internalType": "uint256",
          "name": "tokenId",
          "type": "uint256"
        }
      ],
      "name": "cancelListing",
      "outputs": [],
      "stateMutability": "nonpayable",
      "type": "function"
    },
    {
      "inputs": [
        {
          "internalType": "uint256",
          "name": "skip",
          "type": "uint256"
        },
        {
          "internalType": "uint256",
          "name": "take",
          "type": "uint256"
        }
      ],
      "name": "getAllListings",
      "outputs": [
        {
          "internalType": "uint256[]",
          "name": "tokenIds",
          "type": "uint256[]"
        },
        {
          "internalType": "address[]",
          "name": "sellers",
          "type": "address[]"
        },
        {
          "internalType": "uint256[]",
          "name": "prices",
          "type": "uint256[]"
        }
      ],
      "stateMutability": "view",
      "type": "function"
    },
    {
      "inputs": [
        {
          "internalType": "uint256",
          "name": "tokenId",
          "type": "uint256"
        }
      ],
      "name": "getApproved",
      "outputs": [
        {
          "internalType": "address",
          "name": "",
          "type": "address"
        }
      ],
      "stateMutability": "view",
      "type": "function"
    },
    {
      "inputs": [
        {
          "internalType": "uint256",
          "name": "tokenId",
          "type": "uint256"
        }
      ],
      "name": "getListing",
      "outputs": [
        {
          "internalType": "address",
          "name": "seller",
          "type": "address"
        },
        {
          "internalType": "uint256",
          "name": "price",
          "type": "uint256"
        },
        {
          "internalType": "bool",
          "name": "isActive",
          "type": "bool"
        }
      ],
      "stateMutability": "view",
      "type": "function"
    },
    {
      "inputs": [
        {
          "internalType": "address",
          "name": "seller",
          "type": "address"
        }
      ],
      "name": "getListingsBySeller",
      "outputs": [
        {
          "internalType": "uint256[]",
          "name": "tokenIds",
          "type": "uint256[]"
        },
        {
          "internalType": "uint256[]",
          "name": "prices",
          "type": "uint256[]"
        }
      ],
      "stateMutability": "view",
      "type": "function"
    },
    {
      "inputs": [],
      "name": "getMarketplaceFee",
      "outputs": [
        {
          "internalType": "uint256",
          "name": "",
          "type": "uint256"
        }
      ],
      "stateMutability": "view",
      "type": "function"
    },
    {
      "inputs": [],
      "name": "getMyListings",
      "outputs": [
        {
          "internalType": "uint256[]",
          "name": "tokenIds",
          "type": "uint256[]"
        },
        {
          "internalType": "uint256[]",
          "name": "prices",
          "type": "uint256[]"
        }
      ],
      "stateMutability": "view",
      "type": "function"
    },
    {
      "inputs": [],
      "name": "getMyNFTs",
      "outputs": [
        {
          "internalType": "uint256[]",
          "name": "",
          "type": "uint256[]"
        }
      ],
      "stateMutability": "view",
      "type": "function"
    },
    {
      "inputs": [
        {
          "internalType": "address",
          "name": "owner",
          "type": "address"
        }
      ],
      "name": "getNFTsByOwner",
      "outputs": [
        {
          "internalType": "uint256[]",
          "name": "",
          "type": "uint256[]"
        }
      ],
      "stateMutability": "view",
      "type": "function"
    },
    {
      "inputs": [
        {
          "internalType": "address",
          "name": "owner",
          "type": "address"
        },
        {
          "internalType": "address",
          "name": "operator",
          "type": "address"
        }
      ],
      "name": "isApprovedForAll",
      "outputs": [
        {
          "internalType": "bool",
          "name": "",
          "type": "bool"
        }
      ],
      "stateMutability": "view",
      "type": "function"
    },
    {
      "inputs": [
        {
          "internalType": "uint256",
          "name": "tokenId",
          "type": "uint256"
        },
        {
          "internalType": "uint256",
          "name": "price",
          "type": "uint256"
        }
      ],
      "name": "listNFT",
      "outputs": [],
      "stateMutability": "nonpayable",
      "type": "function"
    },
    {
      "inputs": [],
      "name": "marketplaceFeePercentage",
      "outputs": [
        {
          "internalType": "uint256",
          "name": "",
          "type": "uint256"
        }
      ],
      "stateMutability": "view",
      "type": "function"
    },
    {
      "inputs": [
        {
          "internalType": "string",
          "name": "uri",
          "type": "string"
        }
      ],
      "name": "mint",
      "outputs": [
        {
          "internalType": "uint256",
          "name": "",
          "type": "uint256"
        }
      ],
      "stateMutability": "payable",
      "type": "function"
    },
    {
      "inputs": [],
      "name": "mintFee",
      "outputs": [
        {
          "internalType": "uint256",
          "name": "",
          "type": "uint256"
        }
      ],
      "stateMutability": "view",
      "type": "function"
    },
    {
      "inputs": [],
      "name": "name",
      "outputs": [
        {
          "internalType": "string",
          "name": "",
          "type": "string"
        }
      ],
      "stateMutability": "view",
      "type": "function"
    },
    {
      "inputs": [],
      "name": "owner",
      "outputs": [
        {
          "internalType": "address",
          "name": "",
          "type": "address"
        }
      ],
      "stateMutability": "view",
      "type": "function"
    },
    {
      "inputs": [
        {
          "internalType": "uint256",
          "name": "tokenId",
          "type": "uint256"
        }
      ],
      "name": "ownerOf",
      "outputs": [
        {
          "internalType": "address",
          "name": "",
          "type": "address"
        }
      ],
      "stateMutability": "view",
      "type": "function"
    },
    {
      "inputs": [],
      "name": "renounceOwnership",
      "outputs": [],
      "stateMutability": "nonpayable",
      "type": "function"
    },
    {
      "inputs": [
        {
          "internalType": "address",
          "name": "to",
          "type": "address"
        },
        {
          "internalType": "string",
          "name": "uri",
          "type": "string"
        }
      ],
      "name": "safeMint",
      "outputs": [
        {
          "internalType": "uint256",
          "name": "",
          "type": "uint256"
        }
      ],
      "stateMutability": "nonpayable",
      "type": "function"
    },
    {
      "inputs": [
        {
          "internalType": "address",
          "name": "from",
          "type": "address"
        },
        {
          "internalType": "address",
          "name": "to",
          "type": "address"
        },
        {
          "internalType": "uint256",
          "name": "tokenId",
          "type": "uint256"
        }
      ],
      "name": "safeTransferFrom",
      "outputs": [],
      "stateMutability": "nonpayable",
      "type": "function"
    },
    {
      "inputs": [
        {
          "internalType": "address",
          "name": "from",
          "type": "address"
        },
        {
          "internalType": "address",
          "name": "to",
          "type": "address"
        },
        {
          "internalType": "uint256",
          "name": "tokenId",
          "type": "uint256"
        },
        {
          "internalType": "bytes",
          "name": "data",
          "type": "bytes"
        }
      ],
      "name": "safeTransferFrom",
      "outputs": [],
      "stateMutability": "nonpayable",
      "type": "function"
    },
    {
      "inputs": [
        {
          "internalType": "address",
          "name": "operator",
          "type": "address"
        },
        {
          "internalType": "bool",
          "name": "approved",
          "type": "bool"
        }
      ],
      "name": "setApprovalForAll",
      "outputs": [],
      "stateMutability": "nonpayable",
      "type": "function"
    },
    {
      "inputs": [
        {
          "internalType": "uint256",
          "name": "newMarketplaceFee",
          "type": "uint256"
        }
      ],
      "name": "setMarketplaceFee",
      "outputs": [],
      "stateMutability": "nonpayable",
      "type": "function"
    },
    {
      "inputs": [
        {
          "internalType": "uint256",
          "name": "newMintFee",
          "type": "uint256"
        }
      ],
      "name": "setMintFee",
      "outputs": [],
      "stateMutability": "nonpayable",
      "type": "function"
    },
    {
      "inputs": [
        {
          "internalType": "bytes4",
          "name": "interfaceId",
          "type": "bytes4"
        }
      ],
      "name": "supportsInterface",
      "outputs": [
        {
          "internalType": "bool",
          "name": "",
          "type": "bool"
        }
      ],
      "stateMutability": "view",
      "type": "function"
    },
    {
      "inputs": [],
      "name": "symbol",
      "outputs": [
        {
          "internalType": "string",
          "name": "",
          "type": "string"
        }
      ],
      "stateMutability": "view",
      "type": "function"
    },
    {
      "inputs": [
        {
          "internalType": "uint256",
          "name": "tokenId",
          "type": "uint256"
        }
      ],
      "name": "tokenURI",
      "outputs": [
        {
          "internalType": "string",
          "name": "",
          "type": "string"
        }
      ],
      "stateMutability": "view",
      "type": "function"
    },
    {
      "inputs": [
        {
          "internalType": "address",
          "name": "from",
          "type": "address"
        },
        {
          "internalType": "address",
          "name": "to",
          "type": "address"
        },
        {
          "internalType": "uint256",
          "name": "tokenId",
          "type": "uint256"
        }
      ],
      "name": "transferFrom",
      "outputs": [],
      "stateMutability": "nonpayable",
      "type": "function"
    },
    {
      "inputs": [
        {
          "internalType": "address",
          "name": "newOwner",
          "type": "address"
        }
      ],
      "name": "transferOwnership",
      "outputs": [],
      "stateMutability": "nonpayable",
      "type": "function"
    },
    {
      "inputs": [
        {
          "internalType": "uint256",
          "name": "tokenId",
          "type": "uint256"
        },
        {
          "internalType": "uint256",
          "name": "newPrice",
          "type": "uint256"
        }
      ],
      "name": "updateListingPrice",
      "outputs": [],
      "stateMutability": "nonpayable",
      "type": "function"
    },
    {
      "inputs": [],
      "name": "withdrawFees",
      "outputs": [],
      "stateMutability": "nonpayable",
      "type": "function"
    }
  ],
  "bytecode": "0x608060405260fa600a55662386f26fc10000600b5534801561002057600080fd5b50604051614faa380380614faa8339818101604052810190610042919061028a565b806040518060400160405280600e81526020017f4e46544d61726b6574706c6163650000000000000000000000000000000000008152506040518060400160405280600381526020017f4e4d50000000000000000000000000000000000000000000000000000000000081525081600090816100be9190610507565b5080600190816100ce9190610507565b505050600073ffffffffffffffffffffffffffffffffffffffff168173ffffffffffffffffffffffffffffffffffffffff16036101435760006040517f1e4fbdf700000000000000000000000000000000000000000000000000000000815260040161013a91906105e8565b60405180910390fd5b6101528161016160201b60201c565b50600160088190555050610603565b6000600760009054906101000a900473ffffffffffffffffffffffffffffffffffffffff16905081600760006101000a81548173ffffffffffffffffffffffffffffffffffffffff021916908373ffffffffffffffffffffffffffffffffffffffff1602179055508173ffffffffffffffffffffffffffffffffffffffff168173ffffffffffffffffffffffffffffffffffffffff167f8be0079c531659141344cd1fd0a4f28419497f9722a3daafe3b4186f6b6457e060405160405180910390a35050565b600080fd5b600073ffffffffffffffffffffffffffffffffffffffff82169050919050565b60006102578261022c565b9050919050565b6102678161024c565b811461027257600080fd5b50565b6000815190506102848161025e565b92915050565b6000602082840312156102a05761029f610227565b5b60006102ae84828501610275565b91505092915050565b600081519050919050565b7f4e487b7100000000000000000000000000000000000000000000000000000000600052604160045260246000fd5b7f4e487b7100000000000000000000000000000000000000000000000000000000600052602260045260246000fd5b6000600282049050600182168061033857607f821691505b60208210810361034b5761034a6102f1565b5b50919050565b60008190508160005260206000209050919050565b60006020601f8301049050919050565b600082821b905092915050565b6000600883026103b37fffffffffffffffffffffffffffffffffffffffffffffffffffffffffffffffff82610376565b6103bd8683610376565b95508019841693508086168417925050509392505050565b6000819050919050565b6000819050919050565b60006104046103ff6103fa846103d5565b6103df565b6103d5565b9050919050565b6000819050919050565b61041e836103e9565b61043261042a8261040b565b848454610383565b825550505050565b600090565b61044761043a565b610452818484610415565b505050565b5b818110156104765761046b60008261043f565b600181019050610458565b5050565b601f8211156104bb5761048c81610351565b61049584610366565b810160208510156104a4578190505b6104b86104b085610366565b830182610457565b50505b505050565b600082821c905092915050565b60006104de600019846008026104c0565b1980831691505092915050565b60006104f783836104cd565b9150826002028217905092915050565b610510826102b7565b67ffffffffffffffff811115610529576105286102c2565b5b6105338254610320565b61053e82828561047a565b600060209050601f831160018114610571576000841561055f578287015190505b61056985826104eb565b8655506105d1565b601f19841661057f86610351565b60005b828110156105a757848901518255600182019150602085019450602081019050610582565b868310156105c457848901516105c0601f8916826104cd565b8355505b6001600288020188555050505b505050505050565b6105e28161024c565b82525050565b60006020820190506105fd60008301846105d9565b92915050565b614998806106126000396000f3fe6080604052600436106101f85760003560e01c8063715018a61161010d578063c5275fb0116100a0578063d8cba2511161006f578063d8cba2511461072d578063e2afe8b31461076b578063e985e9c5146107a8578063eddd0d9c146107e5578063f2fde38b1461080e576101f8565b8063c5275fb014610644578063c87b56dd14610683578063d204c45e146106c0578063d85d3d27146106fd576101f8565b806395d89b41116100dc57806395d89b411461059e578063a22cb465146105c9578063b88d4fde146105f2578063c46049431461061b576101f8565b8063715018a61461050a5780638da5cb5b146105215780639407ea981461054c57806394383f1414610575576101f8565b806326a7b37b116101905780634adadddf1161015f5780634adadddf1461041e57806351ed828814610449578063629cb2e4146104655780636352211e1461049057806370a08231146104cd576101f8565b806326a7b37b1461038a578063305a67a8146103b557806342842e0e146103de578063476343ee14610407576101f8565b8063095ea7b3116101cc578063095ea7b3146102ce578063107a274a146102f757806313966db51461033657806323b872dd14610361576101f8565b8062754eea146101fd57806301ffc9a71461022957806306fdde0314610266578063081812fc14610291575b600080fd5b34801561020957600080fd5b50610212610837565b6040516102209291906134c9565b60405180910390f35b34801561023557600080fd5b50610250600480360381019061024b919061356c565b61084b565b60405161025d91906135b4565b60405180910390f35b34801561027257600080fd5b5061027b61085d565b604051610288919061365f565b60405180910390f35b34801561029d57600080fd5b506102b860048036038101906102b391906136ad565b6108ef565b6040516102c5919061371b565b60405180910390f35b3480156102da57600080fd5b506102f560048036038101906102f09190613762565b61090b565b005b34801561030357600080fd5b5061031e600480360381019061031991906136ad565b610921565b60405161032d939291906137b1565b60405180910390f35b34801561034257600080fd5b5061034b6109df565b60405161035891906137e8565b60405180910390f35b34801561036d57600080fd5b5061038860048036038101906103839190613803565b6109e5565b005b34801561039657600080fd5b5061039f610ae7565b6040516103ac91906137e8565b60405180910390f35b3480156103c157600080fd5b506103dc60048036038101906103d791906136ad565b610af1565b005b3480156103ea57600080fd5b5061040560048036038101906104009190613803565b610c35565b005b34801561041357600080fd5b5061041c610c55565b005b34801561042a57600080fd5b50610433610cf6565b60405161044091906137e8565b60405180910390f35b610463600480360381019061045e91906136ad565b610cfc565b005b34801561047157600080fd5b5061047a61101c565b6040516104879190613856565b60405180910390f35b34801561049c57600080fd5b506104b760048036038101906104b291906136ad565b61102c565b6040516104c4919061371b565b60405180910390f35b3480156104d957600080fd5b506104f460048036038101906104ef9190613878565b61103e565b60405161050191906137e8565b60405180910390f35b34801561051657600080fd5b5061051f6110f8565b005b34801561052d57600080fd5b5061053661110c565b604051610543919061371b565b60405180910390f35b34801561055857600080fd5b50610573600480360381019061056e91906136ad565b611136565b005b34801561058157600080fd5b5061059c600480360381019061059791906138a5565b6111cd565b005b3480156105aa57600080fd5b506105b36113fe565b6040516105c0919061365f565b60405180910390f35b3480156105d557600080fd5b506105f060048036038101906105eb9190613911565b611490565b005b3480156105fe57600080fd5b5061061960048036038101906106149190613a86565b6114a6565b005b34801561062757600080fd5b50610642600480360381019061063d91906138a5565b6114cb565b005b34801561065057600080fd5b5061066b600480360381019061066691906138a5565b611641565b60405161067a93929190613bc7565b60405180910390f35b34801561068f57600080fd5b506106aa60048036038101906106a591906136ad565b61191b565b6040516106b7919061365f565b60405180910390f35b3480156106cc57600080fd5b506106e760048036038101906106e29190613cb4565b61192d565b6040516106f491906137e8565b60405180910390f35b61071760048036038101906107129190613d10565b611a2e565b60405161072491906137e8565b60405180910390f35b34801561073957600080fd5b50610754600480360381019061074f9190613878565b611b6b565b6040516107629291906134c9565b60405180910390f35b34801561077757600080fd5b50610792600480360381019061078d9190613878565b611df4565b60405161079f9190613856565b60405180910390f35b3480156107b457600080fd5b506107cf60048036038101906107ca9190613d59565b611ef2565b6040516107dc91906135b4565b60405180910390f35b3480156107f157600080fd5b5061080c600480360381019061080791906136ad565b611f86565b005b34801561081a57600080fd5b5061083560048036038101906108309190613878565b611fd9565b005b60608061084333611b6b565b915091509091565b60006108568261205f565b9050919050565b60606000805461086c90613dc8565b80601f016020809104026020016040519081016040528092919081815260200182805461089890613dc8565b80156108e55780601f106108ba576101008083540402835291602001916108e5565b820191906000526020600020905b8154815290600101906020018083116108c857829003601f168201915b5050505050905090565b60006108fa826120c0565b5061090482612148565b9050919050565b61091d8282610918612185565b61218d565b5050565b600080600080600c60008681526020019081526020016000206040518060600160405290816000820160009054906101000a900473ffffffffffffffffffffffffffffffffffffffff1673ffffffffffffffffffffffffffffffffffffffff1673ffffffffffffffffffffffffffffffffffffffff168152602001600182015481526020016002820160009054906101000a900460ff1615151515815250509050806000015181602001518260400151935093509350509193909250565b600b5481565b600073ffffffffffffffffffffffffffffffffffffffff168273ffffffffffffffffffffffffffffffffffffffff1603610a575760006040517f64a0ae92000000000000000000000000000000000000000000000000000000008152600401610a4e919061371b565b60405180910390fd5b6000610a6b8383610a66612185565b61219f565b90508373ffffffffffffffffffffffffffffffffffffffff168173ffffffffffffffffffffffffffffffffffffffff1614610ae1578382826040517f64283d7b000000000000000000000000000000000000000000000000000000008152600401610ad893929190613df9565b60405180910390fd5b50505050565b6000600a54905090565b3373ffffffffffffffffffffffffffffffffffffffff16610b118261102c565b73ffffffffffffffffffffffffffffffffffffffff1614610b67576040517f08c379a0000000000000000000000000000000000000000000000000000000008152600401610b5e90613e7c565b60405180910390fd5b600c600082815260200190815260200160002060020160009054906101000a900460ff16610bca576040517f08c379a0000000000000000000000000000000000000000000000000000000008152600401610bc190613ee8565b60405180910390fd5b6000600c600083815260200190815260200160002060020160006101000a81548160ff0219169083151502179055507f60d684fb8e0e3f4ae9b51912760d57e90172fe4eac3d2faed8f0b97fa6030cdb8133604051610c2a929190613f08565b60405180910390a150565b610c50838383604051806020016040528060008152506114a6565b505050565b610c5d6123b9565b600047905060008111610ca5576040517f08c379a0000000000000000000000000000000000000000000000000000000008152600401610c9c90613f7d565b60405180910390fd5b610cad61110c565b73ffffffffffffffffffffffffffffffffffffffff166108fc829081150290604051600060405180830381858888f19350505050158015610cf2573d6000803e3d6000fd5b5050565b600a5481565b610d04612440565b6000600c60008381526020019081526020016000206040518060600160405290816000820160009054906101000a900473ffffffffffffffffffffffffffffffffffffffff1673ffffffffffffffffffffffffffffffffffffffff1673ffffffffffffffffffffffffffffffffffffffff168152602001600182015481526020016002820160009054906101000a900460ff16151515158152505090508060400151610de5576040517f08c379a0000000000000000000000000000000000000000000000000000000008152600401610ddc90613fe9565b60405180910390fd5b8060200151341015610e2c576040517f08c379a0000000000000000000000000000000000000000000000000000000008152600401610e2390614055565b60405180910390fd5b806000015173ffffffffffffffffffffffffffffffffffffffff16610e5083612486565b73ffffffffffffffffffffffffffffffffffffffff1614610ea6576040517f08c379a0000000000000000000000000000000000000000000000000000000008152600401610e9d906140e7565b60405180910390fd5b6000600c600084815260200190815260200160002060020160006101000a81548160ff0219169083151502179055506000612710600a548360200151610eec9190614136565b610ef691906141a7565b90506000818360200151610f0a91906141d8565b9050610f1b836000015133866124c3565b826000015173ffffffffffffffffffffffffffffffffffffffff166108fc829081150290604051600060405180830381858888f19350505050158015610f65573d6000803e3d6000fd5b508260200151341115610fc9573373ffffffffffffffffffffffffffffffffffffffff166108fc846020015134610f9c91906141d8565b9081150290604051600060405180830381858888f19350505050158015610fc7573d6000803e3d6000fd5b505b7f8562eb94748e30bb0071e932744ce902b460c683474fcb3bfd567ffa16b1afb2848460000151338660200151604051611006949392919061420c565b60405180910390a1505050611019612630565b50565b606061102733611df4565b905090565b6000611037826120c0565b9050919050565b60008073ffffffffffffffffffffffffffffffffffffffff168273ffffffffffffffffffffffffffffffffffffffff16036110b15760006040517f89c62b640000000000000000000000000000000000000000000000000000000081526004016110a8919061371b565b60405180910390fd5b600360008373ffffffffffffffffffffffffffffffffffffffff1673ffffffffffffffffffffffffffffffffffffffff168152602001908152602001600020549050919050565b6111006123b9565b61110a600061263a565b565b6000600760009054906101000a900473ffffffffffffffffffffffffffffffffffffffff16905090565b61113e6123b9565b6103e88110611182576040517f08c379a00000000000000000000000000000000000000000000000000000000081526004016111799061429d565b60405180910390fd5b6000600a54905081600a819055507f936008f1e981d6f48d4a529714c27d74d644750a1d215451212ce0f2476f2fbc81836040516111c19291906142bd565b60405180910390a15050565b6111d5612440565b3373ffffffffffffffffffffffffffffffffffffffff166111f58361102c565b73ffffffffffffffffffffffffffffffffffffffff161461124b576040517f08c379a000000000000000000000000000000000000000000000000000000000815260040161124290613e7c565b60405180910390fd5b6000811161128e576040517f08c379a000000000000000000000000000000000000000000000000000000000815260040161128590614332565b60405180910390fd5b600c600083815260200190815260200160002060020160009054906101000a900460ff16156112f2576040517f08c379a00000000000000000000000000000000000000000000000000000000081526004016112e99061439e565b60405180910390fd5b60405180606001604052803373ffffffffffffffffffffffffffffffffffffffff16815260200182815260200160011515815250600c600084815260200190815260200160002060008201518160000160006101000a81548173ffffffffffffffffffffffffffffffffffffffff021916908373ffffffffffffffffffffffffffffffffffffffff1602179055506020820151816001015560408201518160020160006101000a81548160ff0219169083151502179055509050506113b7308361090b565b7f5f9c03de076f5063cd3ebcfe8ef7aa8af378e4b35a83c77ba9777e97083879a28233836040516113ea939291906143be565b60405180910390a16113fa612630565b5050565b60606001805461140d90613dc8565b80601f016020809104026020016040519081016040528092919081815260200182805461143990613dc8565b80156114865780601f1061145b57610100808354040283529160200191611486565b820191906000526020600020905b81548152906001019060200180831161146957829003601f168201915b5050505050905090565b6114a261149b612185565b8383612700565b5050565b6114b18484846109e5565b6114c56114bc612185565b8585858561286f565b50505050565b3373ffffffffffffffffffffffffffffffffffffffff166114eb8361102c565b73ffffffffffffffffffffffffffffffffffffffff1614611541576040517f08c379a000000000000000000000000000000000000000000000000000000000815260040161153890613e7c565b60405180910390fd5b600c600083815260200190815260200160002060020160009054906101000a900460ff166115a4576040517f08c379a000000000000000000000000000000000000000000000000000000000815260040161159b90613ee8565b60405180910390fd5b600081116115e7576040517f08c379a00000000000000000000000000000000000000000000000000000000081526004016115de90614332565b60405180910390fd5b80600c6000848152602001908152602001600020600101819055507f86a36861149c34cf3a9eed4e4f983f778151969b416eabfc195cfceada05f498823383604051611635939291906143be565b60405180910390a15050565b60608060606000805b60095481101561169957600c600082815260200190815260200160002060020160009054906101000a900460ff161561168c578180611688906143f5565b9250505b808060010191505061164a565b5060008590508187106116af57600090506116d2565b8186886116bc919061443d565b11156116d15786826116ce91906141d8565b90505b5b8067ffffffffffffffff8111156116ec576116eb61395b565b5b60405190808252806020026020018201604052801561171a5781602001602082028036833780820191505090505b5094508067ffffffffffffffff8111156117375761173661395b565b5b6040519080825280602002602001820160405280156117655781602001602082028036833780820191505090505b5093508067ffffffffffffffff8111156117825761178161395b565b5b6040519080825280602002602001820160405280156117b05781602001602082028036833780820191505090505b50925060008060005b600954811080156117c957508383105b1561190f57600c600082815260200190815260200160002060020160009054906101000a900460ff16156118fb578982101561181257818061180a906143f5565b9250506118fc565b8088848151811061182657611825614471565b5b602002602001018181525050600c600082815260200190815260200160002060000160009054906101000a900473ffffffffffffffffffffffffffffffffffffffff1687848151811061187c5761187b614471565b5b602002602001019073ffffffffffffffffffffffffffffffffffffffff16908173ffffffffffffffffffffffffffffffffffffffff1681525050600c6000828152602001908152602001600020600101548684815181106118e0576118df614471565b5b60200260200101818152505082806118f7906143f5565b9350505b5b8080611907906143f5565b9150506117b9565b50505050509250925092565b606061192682612a20565b9050919050565b60006119376123b9565b600073ffffffffffffffffffffffffffffffffffffffff168373ffffffffffffffffffffffffffffffffffffffff16036119a6576040517f08c379a000000000000000000000000000000000000000000000000000000000815260040161199d906144ec565b60405180910390fd5b6000600960008154809291906119bb906143f5565b9190505590506119cb8482612b33565b6119d58184612b51565b8373ffffffffffffffffffffffffffffffffffffffff16817f06becd955c918828f6e985541acbf49cc842c9e9bd569fffc7698e721ef1357585604051611a1c919061365f565b60405180910390a38091505092915050565b6000611a38612440565b600b54341015611a7d576040517f08c379a0000000000000000000000000000000000000000000000000000000008152600401611a7490614558565b60405180910390fd5b600060096000815480929190611a92906143f5565b919050559050611aa23382612b33565b611aac8184612b51565b600b54341115611b0b573373ffffffffffffffffffffffffffffffffffffffff166108fc600b5434611ade91906141d8565b9081150290604051600060405180830381858888f19350505050158015611b09573d6000803e3d6000fd5b505b3373ffffffffffffffffffffffffffffffffffffffff16817f06becd955c918828f6e985541acbf49cc842c9e9bd569fffc7698e721ef1357585604051611b52919061365f565b60405180910390a380915050611b66612630565b919050565b6060806000805b600954811015611c2e57600c600082815260200190815260200160002060020160009054906101000a900460ff168015611c0d57508473ffffffffffffffffffffffffffffffffffffffff16600c600083815260200190815260200160002060000160009054906101000a900473ffffffffffffffffffffffffffffffffffffffff1673ffffffffffffffffffffffffffffffffffffffff16145b15611c21578180611c1d906143f5565b9250505b8080600101915050611b72565b508067ffffffffffffffff811115611c4957611c4861395b565b5b604051908082528060200260200182016040528015611c775781602001602082028036833780820191505090505b5092508067ffffffffffffffff811115611c9457611c9361395b565b5b604051908082528060200260200182016040528015611cc25781602001602082028036833780820191505090505b5091506000805b60095481108015611cd957508282105b15611dec57600c600082815260200190815260200160002060020160009054906101000a900460ff168015611d6f57508573ffffffffffffffffffffffffffffffffffffffff16600c600083815260200190815260200160002060000160009054906101000a900473ffffffffffffffffffffffffffffffffffffffff1673ffffffffffffffffffffffffffffffffffffffff16145b15611dd95780858381518110611d8857611d87614471565b5b602002602001018181525050600c600082815260200190815260200160002060010154848381518110611dbe57611dbd614471565b5b6020026020010181815250508180611dd5906143f5565b9250505b8080611de4906143f5565b915050611cc9565b505050915091565b60606000611e018361103e565b905060008167ffffffffffffffff811115611e1f57611e1e61395b565b5b604051908082528060200260200182016040528015611e4d5781602001602082028036833780820191505090505b5090506000805b60095481108015611e6457508382105b15611ee6578573ffffffffffffffffffffffffffffffffffffffff16611e8982612486565b73ffffffffffffffffffffffffffffffffffffffff1603611ed35780838381518110611eb857611eb7614471565b5b6020026020010181815250508180611ecf906143f5565b9250505b8080611ede906143f5565b915050611e54565b50819350505050919050565b6000600560008473ffffffffffffffffffffffffffffffffffffffff1673ffffffffffffffffffffffffffffffffffffffff16815260200190815260200160002060008373ffffffffffffffffffffffffffffffffffffffff1673ffffffffffffffffffffffffffffffffffffffff16815260200190815260200160002060009054906101000a900460ff16905092915050565b611f8e6123b9565b6000600b54905081600b819055507f7864bf708cae822050e5f50960a0de31bd6fe7620a8f67a48582fb95f29c114a8183604051611fcd9291906142bd565b60405180910390a15050565b611fe16123b9565b600073ffffffffffffffffffffffffffffffffffffffff168173ffffffffffffffffffffffffffffffffffffffff16036120535760006040517f1e4fbdf700000000000000000000000000000000000000000000000000000000815260040161204a919061371b565b60405180910390fd5b61205c8161263a565b50565b6000634906490660e01b7bffffffffffffffffffffffffffffffffffffffffffffffffffffffff1916827bffffffffffffffffffffffffffffffffffffffffffffffffffffffff191614806120b957506120b882612bad565b5b9050919050565b6000806120cc83612486565b9050600073ffffffffffffffffffffffffffffffffffffffff168173ffffffffffffffffffffffffffffffffffffffff160361213f57826040517f7e27328900000000000000000000000000000000000000000000000000000000815260040161213691906137e8565b60405180910390fd5b80915050919050565b60006004600083815260200190815260200160002060009054906101000a900473ffffffffffffffffffffffffffffffffffffffff169050919050565b600033905090565b61219a8383836001612c8f565b505050565b6000806121ab84612486565b9050600073ffffffffffffffffffffffffffffffffffffffff168373ffffffffffffffffffffffffffffffffffffffff16146121ed576121ec818486612e54565b5b600073ffffffffffffffffffffffffffffffffffffffff168173ffffffffffffffffffffffffffffffffffffffff161461227e5761222f600085600080612c8f565b6001600360008373ffffffffffffffffffffffffffffffffffffffff1673ffffffffffffffffffffffffffffffffffffffff168152602001908152602001600020600082825403925050819055505b600073ffffffffffffffffffffffffffffffffffffffff168573ffffffffffffffffffffffffffffffffffffffff1614612301576001600360008773ffffffffffffffffffffffffffffffffffffffff1673ffffffffffffffffffffffffffffffffffffffff168152602001908152602001600020600082825401925050819055505b846002600086815260200190815260200160002060006101000a81548173ffffffffffffffffffffffffffffffffffffffff021916908373ffffffffffffffffffffffffffffffffffffffff160217905550838573ffffffffffffffffffffffffffffffffffffffff168273ffffffffffffffffffffffffffffffffffffffff167fddf252ad1be2c89b69c2b068fc378daa952ba7f163c4a11628f55a4df523b3ef60405160405180910390a4809150509392505050565b6123c1612185565b73ffffffffffffffffffffffffffffffffffffffff166123df61110c565b73ffffffffffffffffffffffffffffffffffffffff161461243e57612402612185565b6040517f118cdaa7000000000000000000000000000000000000000000000000000000008152600401612435919061371b565b60405180910390fd5b565b60026008540361247c576040517f3ee5aeb500000000000000000000000000000000000000000000000000000000815260040160405180910390fd5b6002600881905550565b60006002600083815260200190815260200160002060009054906101000a900473ffffffffffffffffffffffffffffffffffffffff169050919050565b600073ffffffffffffffffffffffffffffffffffffffff168273ffffffffffffffffffffffffffffffffffffffff16036125355760006040517f64a0ae9200000000000000000000000000000000000000000000000000000000815260040161252c919061371b565b60405180910390fd5b60006125438383600061219f565b9050600073ffffffffffffffffffffffffffffffffffffffff168173ffffffffffffffffffffffffffffffffffffffff16036125b657816040517f7e2732890000000000000000000000000000000000000000000000000000000081526004016125ad91906137e8565b60405180910390fd5b8373ffffffffffffffffffffffffffffffffffffffff168173ffffffffffffffffffffffffffffffffffffffff161461262a578382826040517f64283d7b00000000000000000000000000000000000000000000000000000000815260040161262193929190613df9565b60405180910390fd5b50505050565b6001600881905550565b6000600760009054906101000a900473ffffffffffffffffffffffffffffffffffffffff16905081600760006101000a81548173ffffffffffffffffffffffffffffffffffffffff021916908373ffffffffffffffffffffffffffffffffffffffff1602179055508173ffffffffffffffffffffffffffffffffffffffff168173ffffffffffffffffffffffffffffffffffffffff167f8be0079c531659141344cd1fd0a4f28419497f9722a3daafe3b4186f6b6457e060405160405180910390a35050565b600073ffffffffffffffffffffffffffffffffffffffff168273ffffffffffffffffffffffffffffffffffffffff160361277157816040517f5b08ba18000000000000000000000000000000000000000000000000000000008152600401612768919061371b565b60405180910390fd5b80600560008573ffffffffffffffffffffffffffffffffffffffff1673ffffffffffffffffffffffffffffffffffffffff16815260200190815260200160002060008473ffffffffffffffffffffffffffffffffffffffff1673ffffffffffffffffffffffffffffffffffffffff16815260200190815260200160002060006101000a81548160ff0219169083151502179055508173ffffffffffffffffffffffffffffffffffffffff168373ffffffffffffffffffffffffffffffffffffffff167f17307eab39ab6107e8899845ad3d59bd9653f200f220920489ca2b5937696c318360405161286291906135b4565b60405180910390a3505050565b60008373ffffffffffffffffffffffffffffffffffffffff163b1115612a19578273ffffffffffffffffffffffffffffffffffffffff1663150b7a02868685856040518563ffffffff1660e01b81526004016128ce94939291906145cd565b6020604051808303816000875af192505050801561290a57506040513d601f19601f82011682018060405250810190612907919061462e565b60015b61298e573d806000811461293a576040519150601f19603f3d011682016040523d82523d6000602084013e61293f565b606091505b50600081510361298657836040517f64a0ae9200000000000000000000000000000000000000000000000000000000815260040161297d919061371b565b60405180910390fd5b805181602001fd5b63150b7a0260e01b7bffffffffffffffffffffffffffffffffffffffffffffffffffffffff1916817bffffffffffffffffffffffffffffffffffffffffffffffffffffffff191614612a1757836040517f64a0ae92000000000000000000000000000000000000000000000000000000008152600401612a0e919061371b565b60405180910390fd5b505b5050505050565b6060612a2b826120c0565b506000600660008481526020019081526020016000208054612a4c90613dc8565b80601f0160208091040260200160405190810160405280929190818152602001828054612a7890613dc8565b8015612ac55780601f10612a9a57610100808354040283529160200191612ac5565b820191906000526020600020905b815481529060010190602001808311612aa857829003601f168201915b505050505090506000612ad6612f18565b90506000815103612aeb578192505050612b2e565b600082511115612b20578082604051602001612b08929190614697565b60405160208183030381529060405292505050612b2e565b612b2984612f2f565b925050505b919050565b612b4d828260405180602001604052806000815250612f98565b5050565b80600660008481526020019081526020016000209081612b719190614867565b507ff8e1a15aba9398e019f0b49df1a4fde98ee17ae345cb5f6b5e2c27f5033e8ce782604051612ba191906137e8565b60405180910390a15050565b60007f80ac58cd000000000000000000000000000000000000000000000000000000007bffffffffffffffffffffffffffffffffffffffffffffffffffffffff1916827bffffffffffffffffffffffffffffffffffffffffffffffffffffffff19161480612c7857507f5b5e139f000000000000000000000000000000000000000000000000000000007bffffffffffffffffffffffffffffffffffffffffffffffffffffffff1916827bffffffffffffffffffffffffffffffffffffffffffffffffffffffff1916145b80612c885750612c8782612fbc565b5b9050919050565b8080612cc85750600073ffffffffffffffffffffffffffffffffffffffff168273ffffffffffffffffffffffffffffffffffffffff1614155b15612dfc576000612cd8846120c0565b9050600073ffffffffffffffffffffffffffffffffffffffff168373ffffffffffffffffffffffffffffffffffffffff1614158015612d4357508273ffffffffffffffffffffffffffffffffffffffff168173ffffffffffffffffffffffffffffffffffffffff1614155b8015612d565750612d548184611ef2565b155b15612d9857826040517fa9fbf51f000000000000000000000000000000000000000000000000000000008152600401612d8f919061371b565b60405180910390fd5b8115612dfa57838573ffffffffffffffffffffffffffffffffffffffff168273ffffffffffffffffffffffffffffffffffffffff167f8c5be1e5ebec7d5bd14f71427d1e84f3dd0314c0f7b2291e5b200ac8c7c3b92560405160405180910390a45b505b836004600085815260200190815260200160002060006101000a81548173ffffffffffffffffffffffffffffffffffffffff021916908373ffffffffffffffffffffffffffffffffffffffff16021790555050505050565b612e5f838383613026565b612f1357600073ffffffffffffffffffffffffffffffffffffffff168373ffffffffffffffffffffffffffffffffffffffff1603612ed457806040517f7e273289000000000000000000000000000000000000000000000000000000008152600401612ecb91906137e8565b60405180910390fd5b81816040517f177e802f000000000000000000000000000000000000000000000000000000008152600401612f0a929190614939565b60405180910390fd5b505050565b606060405180602001604052806000815250905090565b6060612f3a826120c0565b506000612f45612f18565b90506000815111612f655760405180602001604052806000815250612f90565b80612f6f846130e7565b604051602001612f80929190614697565b6040516020818303038152906040525b915050919050565b612fa283836131b5565b612fb7612fad612185565b600085858561286f565b505050565b60007f01ffc9a7000000000000000000000000000000000000000000000000000000007bffffffffffffffffffffffffffffffffffffffffffffffffffffffff1916827bffffffffffffffffffffffffffffffffffffffffffffffffffffffff1916149050919050565b60008073ffffffffffffffffffffffffffffffffffffffff168373ffffffffffffffffffffffffffffffffffffffff16141580156130de57508273ffffffffffffffffffffffffffffffffffffffff168473ffffffffffffffffffffffffffffffffffffffff16148061309f575061309e8484611ef2565b5b806130dd57508273ffffffffffffffffffffffffffffffffffffffff166130c583612148565b73ffffffffffffffffffffffffffffffffffffffff16145b5b90509392505050565b6060600060016130f6846132ae565b01905060008167ffffffffffffffff8111156131155761311461395b565b5b6040519080825280601f01601f1916602001820160405280156131475781602001600182028036833780820191505090505b509050600082602001820190505b6001156131aa578080600190039150507f3031323334353637383961626364656600000000000000000000000000000000600a86061a8153600a858161319e5761319d614178565b5b04945060008503613155575b819350505050919050565b600073ffffffffffffffffffffffffffffffffffffffff168273ffffffffffffffffffffffffffffffffffffffff16036132275760006040517f64a0ae9200000000000000000000000000000000000000000000000000000000815260040161321e919061371b565b60405180910390fd5b60006132358383600061219f565b9050600073ffffffffffffffffffffffffffffffffffffffff168173ffffffffffffffffffffffffffffffffffffffff16146132a95760006040517f73c6ac6e0000000000000000000000000000000000000000000000000000000081526004016132a0919061371b565b60405180910390fd5b505050565b600080600090507a184f03e93ff9f4daa797ed6e38ed64bf6a1f010000000000000000831061330c577a184f03e93ff9f4daa797ed6e38ed64bf6a1f010000000000000000838161330257613301614178565b5b0492506040810190505b6d04ee2d6d415b85acef81000000008310613349576d04ee2d6d415b85acef8100000000838161333f5761333e614178565b5b0492506020810190505b662386f26fc10000831061337857662386f26fc10000838161336e5761336d614178565b5b0492506010810190505b6305f5e10083106133a1576305f5e100838161339757613396614178565b5b0492506008810190505b61271083106133c65761271083816133bc576133bb614178565b5b0492506004810190505b606483106133e957606483816133df576133de614178565b5b0492506002810190505b600a83106133f8576001810190505b80915050919050565b600081519050919050565b600082825260208201905092915050565b6000819050602082019050919050565b6000819050919050565b6134408161342d565b82525050565b60006134528383613437565b60208301905092915050565b6000602082019050919050565b600061347682613401565b613480818561340c565b935061348b8361341d565b8060005b838110156134bc5781516134a38882613446565b97506134ae8361345e565b92505060018101905061348f565b5085935050505092915050565b600060408201905081810360008301526134e3818561346b565b905081810360208301526134f7818461346b565b90509392505050565b6000604051905090565b600080fd5b600080fd5b60007fffffffff0000000000000000000000000000000000000000000000000000000082169050919050565b61354981613514565b811461355457600080fd5b50565b60008135905061356681613540565b92915050565b6000602082840312156135825761358161350a565b5b600061359084828501613557565b91505092915050565b60008115159050919050565b6135ae81613599565b82525050565b60006020820190506135c960008301846135a5565b92915050565b600081519050919050565b600082825260208201905092915050565b60005b838110156136095780820151818401526020810190506135ee565b60008484015250505050565b6000601f19601f8301169050919050565b6000613631826135cf565b61363b81856135da565b935061364b8185602086016135eb565b61365481613615565b840191505092915050565b600060208201905081810360008301526136798184613626565b905092915050565b61368a8161342d565b811461369557600080fd5b50565b6000813590506136a781613681565b92915050565b6000602082840312156136c3576136c261350a565b5b60006136d184828501613698565b91505092915050565b600073ffffffffffffffffffffffffffffffffffffffff82169050919050565b6000613705826136da565b9050919050565b613715816136fa565b82525050565b6000602082019050613730600083018461370c565b92915050565b61373f816136fa565b811461374a57600080fd5b50565b60008135905061375c81613736565b92915050565b600080604083850312156137795761377861350a565b5b60006137878582860161374d565b925050602061379885828601613698565b9150509250929050565b6137ab8161342d565b82525050565b60006060820190506137c6600083018661370c565b6137d360208301856137a2565b6137e060408301846135a5565b949350505050565b60006020820190506137fd60008301846137a2565b92915050565b60008060006060848603121561381c5761381b61350a565b5b600061382a8682870161374d565b935050602061383b8682870161374d565b925050604061384c86828701613698565b9150509250925092565b60006020820190508181036000830152613870818461346b565b905092915050565b60006020828403121561388e5761388d61350a565b5b600061389c8482850161374d565b91505092915050565b600080604083850312156138bc576138bb61350a565b5b60006138ca85828601613698565b92505060206138db85828601613698565b9150509250929050565b6138ee81613599565b81146138f957600080fd5b50565b60008135905061390b816138e5565b92915050565b600080604083850312156139285761392761350a565b5b60006139368582860161374d565b9250506020613947858286016138fc565b9150509250929050565b600080fd5b600080fd5b7f4e487b7100000000000000000000000000000000000000000000000000000000600052604160045260246000fd5b61399382613615565b810181811067ffffffffffffffff821117156139b2576139b161395b565b5b80604052505050565b60006139c5613500565b90506139d1828261398a565b919050565b600067ffffffffffffffff8211156139f1576139f061395b565b5b6139fa82613615565b9050602081019050919050565b82818337600083830152505050565b6000613a29613a24846139d6565b6139bb565b905082815260208101848484011115613a4557613a44613956565b5b613a50848285613a07565b509392505050565b600082601f830112613a6d57613a6c613951565b5b8135613a7d848260208601613a16565b91505092915050565b60008060008060808587031215613aa057613a9f61350a565b5b6000613aae8782880161374d565b9450506020613abf8782880161374d565b9350506040613ad087828801613698565b925050606085013567ffffffffffffffff811115613af157613af061350f565b5b613afd87828801613a58565b91505092959194509250565b600081519050919050565b600082825260208201905092915050565b6000819050602082019050919050565b613b3e816136fa565b82525050565b6000613b508383613b35565b60208301905092915050565b6000602082019050919050565b6000613b7482613b09565b613b7e8185613b14565b9350613b8983613b25565b8060005b83811015613bba578151613ba18882613b44565b9750613bac83613b5c565b925050600181019050613b8d565b5085935050505092915050565b60006060820190508181036000830152613be1818661346b565b90508181036020830152613bf58185613b69565b90508181036040830152613c09818461346b565b9050949350505050565b600067ffffffffffffffff821115613c2e57613c2d61395b565b5b613c3782613615565b9050602081019050919050565b6000613c57613c5284613c13565b6139bb565b905082815260208101848484011115613c7357613c72613956565b5b613c7e848285613a07565b509392505050565b600082601f830112613c9b57613c9a613951565b5b8135613cab848260208601613c44565b91505092915050565b60008060408385031215613ccb57613cca61350a565b5b6000613cd98582860161374d565b925050602083013567ffffffffffffffff811115613cfa57613cf961350f565b5b613d0685828601613c86565b9150509250929050565b600060208284031215613d2657613d2561350a565b5b600082013567ffffffffffffffff811115613d4457613d4361350f565b5b613d5084828501613c86565b91505092915050565b60008060408385031215613d7057613d6f61350a565b5b6000613d7e8582860161374d565b9250506020613d8f8582860161374d565b9150509250929050565b7f4e487b7100000000000000000000000000000000000000000000000000000000600052602260045260246000fd5b60006002820490506001821680613de057607f821691505b602082108103613df357613df2613d99565b5b50919050565b6000606082019050613e0e600083018661370c565b613e1b60208301856137a2565b613e28604083018461370c565b949350505050565b7f4e6f7420746865206f776e6572206f6620746865204e46540000000000000000600082015250565b6000613e666018836135da565b9150613e7182613e30565b602082019050919050565b60006020820190508181036000830152613e9581613e59565b9050919050565b7f4e4654206973206e6f74206c6973746564000000000000000000000000000000600082015250565b6000613ed26011836135da565b9150613edd82613e9c565b602082019050919050565b60006020820190508181036000830152613f0181613ec5565b9050919050565b6000604082019050613f1d60008301856137a2565b613f2a602083018461370c565b9392505050565b7f4e6f206665657320746f20776974686472617700000000000000000000000000600082015250565b6000613f676013836135da565b9150613f7282613f31565b602082019050919050565b60006020820190508181036000830152613f9681613f5a565b9050919050565b7f4e4654206973206e6f74206c697374656420666f722073616c65000000000000600082015250565b6000613fd3601a836135da565b9150613fde82613f9d565b602082019050919050565b6000602082019050818103600083015261400281613fc6565b9050919050565b7f496e73756666696369656e742066756e64730000000000000000000000000000600082015250565b600061403f6012836135da565b915061404a82614009565b602082019050919050565b6000602082019050818103600083015261406e81614032565b9050919050565b7f4e4654206973206e6f206c6f6e676572206f776e65642062792074686520736560008201527f6c6c657200000000000000000000000000000000000000000000000000000000602082015250565b60006140d16024836135da565b91506140dc82614075565b604082019050919050565b60006020820190508181036000830152614100816140c4565b9050919050565b7f4e487b7100000000000000000000000000000000000000000000000000000000600052601160045260246000fd5b60006141418261342d565b915061414c8361342d565b925082820261415a8161342d565b9150828204841483151761417157614170614107565b5b5092915050565b7f4e487b7100000000000000000000000000000000000000000000000000000000600052601260045260246000fd5b60006141b28261342d565b91506141bd8361342d565b9250826141cd576141cc614178565b5b828204905092915050565b60006141e38261342d565b91506141ee8361342d565b925082820390508181111561420657614205614107565b5b92915050565b600060808201905061422160008301876137a2565b61422e602083018661370c565b61423b604083018561370c565b61424860608301846137a2565b95945050505050565b7f4665652073686f756c64206265206c657373207468616e203130250000000000600082015250565b6000614287601b836135da565b915061429282614251565b602082019050919050565b600060208201905081810360008301526142b68161427a565b9050919050565b60006040820190506142d260008301856137a2565b6142df60208301846137a2565b9392505050565b7f50726963652073686f756c642062652067726561746572207468616e20300000600082015250565b600061431c601e836135da565b9150614327826142e6565b602082019050919050565b6000602082019050818103600083015261434b8161430f565b9050919050565b7f4e465420697320616c7265616479206c69737465640000000000000000000000600082015250565b60006143886015836135da565b915061439382614352565b602082019050919050565b600060208201905081810360008301526143b78161437b565b9050919050565b60006060820190506143d360008301866137a2565b6143e0602083018561370c565b6143ed60408301846137a2565b949350505050565b60006144008261342d565b91507fffffffffffffffffffffffffffffffffffffffffffffffffffffffffffffffff820361443257614431614107565b5b600182019050919050565b60006144488261342d565b91506144538361342d565b925082820190508082111561446b5761446a614107565b5b92915050565b7f4e487b7100000000000000000000000000000000000000000000000000000000600052603260045260246000fd5b7f496e76616c696420726563697069656e74206164647265737300000000000000600082015250565b60006144d66019836135da565b91506144e1826144a0565b602082019050919050565b60006020820190508181036000830152614505816144c9565b9050919050565b7f496e73756666696369656e74206d696e74206665650000000000000000000000600082015250565b60006145426015836135da565b915061454d8261450c565b602082019050919050565b6000602082019050818103600083015261457181614535565b9050919050565b600081519050919050565b600082825260208201905092915050565b600061459f82614578565b6145a98185614583565b93506145b98185602086016135eb565b6145c281613615565b840191505092915050565b60006080820190506145e2600083018761370c565b6145ef602083018661370c565b6145fc60408301856137a2565b818103606083015261460e8184614594565b905095945050505050565b60008151905061462881613540565b92915050565b6000602082840312156146445761464361350a565b5b600061465284828501614619565b91505092915050565b600081905092915050565b6000614671826135cf565b61467b818561465b565b935061468b8185602086016135eb565b80840191505092915050565b60006146a38285614666565b91506146af8284614666565b91508190509392505050565b60008190508160005260206000209050919050565b60006020601f8301049050919050565b600082821b905092915050565b60006008830261471d7fffffffffffffffffffffffffffffffffffffffffffffffffffffffffffffffff826146e0565b61472786836146e0565b95508019841693508086168417925050509392505050565b6000819050919050565b600061476461475f61475a8461342d565b61473f565b61342d565b9050919050565b6000819050919050565b61477e83614749565b61479261478a8261476b565b8484546146ed565b825550505050565b600090565b6147a761479a565b6147b2818484614775565b505050565b5b818110156147d6576147cb60008261479f565b6001810190506147b8565b5050565b601f82111561481b576147ec816146bb565b6147f5846146d0565b81016020851015614804578190505b614818614810856146d0565b8301826147b7565b50505b505050565b600082821c905092915050565b600061483e60001984600802614820565b1980831691505092915050565b6000614857838361482d565b9150826002028217905092915050565b614870826135cf565b67ffffffffffffffff8111156148895761488861395b565b5b6148938254613dc8565b61489e8282856147da565b600060209050601f8311600181146148d157600084156148bf578287015190505b6148c9858261484b565b865550614931565b601f1984166148df866146bb565b60005b82811015614907578489015182556001820191506020850194506020810190506148e2565b868310156149245784890151614920601f89168261482d565b8355505b6001600288020188555050505b505050505050565b600060408201905061494e600083018561370c565b61495b60208301846137a2565b939250505056fea2646970667358221220e2ad11df1e53dbee0f55bb782e10d8a632ec74e04472e65fb8b306d9d6d2c7f764736f6c634300081c0033",
  "linkReferences": {},
  "deployedLinkReferences": {}
}